{
  "_format": "hh-sol-artifact-1",
  "contractName": "Arena",
  "sourceName": "contracts/Arena.sol",
  "abi": [
    {
      "inputs": [
        {
          "internalType": "address",
          "name": "_agentFactoryAddress",
          "type": "address"
        },
        {
          "internalType": "address",
          "name": "_cadenceArch",
          "type": "address"
        }
      ],
      "stateMutability": "nonpayable",
      "type": "constructor"
    },
    {
      "anonymous": false,
      "inputs": [
        {
          "indexed": true,
          "internalType": "uint256",
          "name": "battleId",
          "type": "uint256"
        },
        {
          "indexed": true,
          "internalType": "uint256",
          "name": "attacker",
          "type": "uint256"
        },
        {
          "indexed": true,
          "internalType": "uint256",
          "name": "defender",
          "type": "uint256"
        },
        {
          "indexed": false,
          "internalType": "uint256",
          "name": "damage",
          "type": "uint256"
        }
      ],
      "name": "Attack",
      "type": "event"
    },
    {
      "anonymous": false,
      "inputs": [
        {
          "indexed": true,
          "internalType": "uint256",
          "name": "battleId",
          "type": "uint256"
        },
        {
          "indexed": true,
          "internalType": "uint256",
          "name": "winner",
          "type": "uint256"
        },
        {
          "indexed": true,
          "internalType": "uint256",
          "name": "loser",
          "type": "uint256"
        }
      ],
      "name": "BattleFinished",
      "type": "event"
    },
    {
      "anonymous": false,
      "inputs": [
        {
          "indexed": false,
          "internalType": "uint256",
          "name": "battleId",
          "type": "uint256"
        },
        {
          "indexed": false,
          "internalType": "uint256",
          "name": "agent1",
          "type": "uint256"
        },
        {
          "indexed": false,
          "internalType": "uint256",
          "name": "agent2",
          "type": "uint256"
        },
        {
          "indexed": false,
          "internalType": "enum Arena.ArenaType",
          "name": "arena",
          "type": "uint8"
        }
      ],
      "name": "BattleStarted",
      "type": "event"
    },
    {
      "inputs": [],
      "name": "agentFactory",
      "outputs": [
        {
          "internalType": "contract IAgentFactory",
          "name": "",
          "type": "address"
        }
      ],
      "stateMutability": "view",
      "type": "function"
    },
    {
      "inputs": [
        {
          "internalType": "uint256",
          "name": "",
          "type": "uint256"
        }
      ],
      "name": "agentInBattle",
      "outputs": [
        {
          "internalType": "bool",
          "name": "",
          "type": "bool"
        }
      ],
      "stateMutability": "view",
      "type": "function"
    },
    {
      "inputs": [
        {
          "internalType": "uint256",
          "name": "",
          "type": "uint256"
        },
        {
          "internalType": "uint256",
          "name": "",
          "type": "uint256"
        }
      ],
      "name": "battleAgentHealth",
      "outputs": [
        {
          "internalType": "uint256",
          "name": "",
          "type": "uint256"
        }
      ],
      "stateMutability": "view",
      "type": "function"
    },
    {
      "inputs": [
        {
          "internalType": "uint256",
          "name": "",
          "type": "uint256"
        }
      ],
      "name": "battles",
      "outputs": [
        {
          "internalType": "uint256",
          "name": "battleId",
          "type": "uint256"
        },
        {
          "internalType": "enum Arena.ArenaType",
          "name": "arena",
          "type": "uint8"
        },
        {
          "internalType": "enum Arena.BattleStatus",
          "name": "status",
          "type": "uint8"
        },
        {
          "internalType": "uint256",
          "name": "winner",
          "type": "uint256"
        }
      ],
      "stateMutability": "view",
      "type": "function"
    },
    {
      "inputs": [],
      "name": "cadenceArch",
      "outputs": [
        {
          "internalType": "address",
          "name": "",
          "type": "address"
        }
      ],
      "stateMutability": "view",
      "type": "function"
    },
    {
      "inputs": [
        {
          "internalType": "uint256",
          "name": "_battleId",
          "type": "uint256"
        }
      ],
      "name": "fight",
      "outputs": [],
      "stateMutability": "nonpayable",
      "type": "function"
    },
    {
      "inputs": [
        {
          "internalType": "uint256",
          "name": "_battleId",
          "type": "uint256"
        }
      ],
      "name": "getBattle",
      "outputs": [
        {
          "components": [
            {
              "internalType": "uint256",
              "name": "battleId",
              "type": "uint256"
            },
            {
              "internalType": "uint256[]",
              "name": "agentIds",
              "type": "uint256[]"
            },
            {
              "internalType": "uint256[]",
              "name": "agentHealths",
              "type": "uint256[]"
            },
            {
              "components": [
                {
                  "internalType": "uint8",
                  "name": "aggressiveness",
                  "type": "uint8"
                },
                {
                  "internalType": "enum Strategy",
                  "name": "strategy",
                  "type": "uint8"
                },
                {
                  "internalType": "uint8",
                  "name": "riskTolerance",
                  "type": "uint8"
                }
              ],
              "internalType": "struct BattleTactics[]",
              "name": "tactics",
              "type": "tuple[]"
            },
            {
              "internalType": "enum Arena.ArenaType",
              "name": "arena",
              "type": "uint8"
            },
            {
              "internalType": "enum Arena.BattleStatus",
              "name": "status",
              "type": "uint8"
            },
            {
              "internalType": "uint256",
              "name": "winner",
              "type": "uint256"
            }
          ],
          "internalType": "struct Arena.BattleView",
          "name": "",
          "type": "tuple"
        }
      ],
      "stateMutability": "view",
      "type": "function"
    },
    {
      "inputs": [],
      "name": "getBattleCount",
      "outputs": [
        {
          "internalType": "uint256",
          "name": "",
          "type": "uint256"
        }
      ],
      "stateMutability": "view",
      "type": "function"
    },
    {
      "inputs": [
        {
          "internalType": "uint256",
          "name": "_agent1Id",
          "type": "uint256"
        },
        {
          "components": [
            {
              "internalType": "uint8",
              "name": "aggressiveness",
              "type": "uint8"
            },
            {
              "internalType": "enum Strategy",
              "name": "strategy",
              "type": "uint8"
            },
            {
              "internalType": "uint8",
              "name": "riskTolerance",
              "type": "uint8"
            }
          ],
          "internalType": "struct BattleTactics",
          "name": "_tactics1",
          "type": "tuple"
        },
        {
          "internalType": "uint256",
          "name": "_agent2Id",
          "type": "uint256"
        },
        {
          "components": [
            {
              "internalType": "uint8",
              "name": "aggressiveness",
              "type": "uint8"
            },
            {
              "internalType": "enum Strategy",
              "name": "strategy",
              "type": "uint8"
            },
            {
              "internalType": "uint8",
              "name": "riskTolerance",
              "type": "uint8"
            }
          ],
          "internalType": "struct BattleTactics",
          "name": "_tactics2",
          "type": "tuple"
        }
      ],
      "name": "startBattle",
      "outputs": [],
      "stateMutability": "nonpayable",
      "type": "function"
    }
  ],
  "bytecode": "0x6080604052346100305761001a61001461010a565b906101ee565b610022610035565b61378561020f823961378590f35b61003b565b60405190565b600080fd5b601f801991011690565b634e487b7160e01b600052604160045260246000fd5b9061006a90610040565b810190811060018060401b0382111761008257604052565b61004a565b9061009a610093610035565b9283610060565b565b600080fd5b60018060a01b031690565b6100b5906100a1565b90565b6100c1816100ac565b036100c857565b600080fd5b905051906100da826100b8565b565b919060408382031261010557806100f961010292600086016100cd565b936020016100cd565b90565b61009c565b6101286139948038038061011d81610087565b9283398101906100dc565b9091565b90565b61014361013e610148926100a1565b61012c565b6100a1565b90565b6101549061012f565b90565b6101609061014b565b90565b60001b90565b9061017a60018060a01b0391610163565b9181191691161790565b61018d9061014b565b90565b90565b906101a86101a36101af92610184565b610190565b8254610169565b9055565b6101bc9061012f565b90565b6101c8906101b3565b90565b90565b906101e36101de6101ea926101bf565b6101cb565b8254610169565b9055565b906102056101fe61020c93610157565b6000610193565b60016101ce565b56fe60806040526004361015610013575b610af3565b61001e6000356100ad565b80632d24d097146100a8578063606d2e96146100a35780636dd0ce7a1461009e5780637df107ea14610099578063825b212414610094578063c230fe0b1461008f578063d0d250bd1461008a578063df6a37aa146100855763f470d5ec0361000e57610abe565b610a8b565b610a56565b6109af565b61082f565b610774565b61068e565b610411565b6101de565b60e01c90565b60405190565b600080fd5b600080fd5b600080fd5b90565b6100d4816100c8565b036100db57565b600080fd5b905035906100ed826100cb565b565b9190604083820312610118578061010c61011592600086016100e0565b936020016100e0565b90565b6100be565b90565b61013461012f610139926100c8565b61011d565b6100c8565b90565b9061014690610120565b600052602052604060002090565b9061015e90610120565b600052602052604060002090565b1c90565b90565b610183906008610188930261016c565b610170565b90565b906101969154610173565b90565b6101b36101b8926101ae60039360009461013c565b610154565b61018b565b90565b6101c4906100c8565b9052565b91906101dc906000602085019401906101bb565b565b3461020f5761020b6101fa6101f43660046100ef565b90610199565b6102026100b3565b918291826101c8565b0390f35b6100b9565b9060208282031261022e5761022b916000016100e0565b90565b6100be565b634e487b7160e01b600052603260045260246000fd5b5490565b600052602060002090565b61026181610249565b82101561027c5761027360059161024d565b91020190600090565b610233565b60001c90565b61029361029891610281565b610170565b90565b6102a59054610287565b90565b60ff1690565b6102ba6102bf91610281565b6102a8565b90565b6102cc90546102ae565b90565b60081c90565b60ff1690565b6102e76102ec916102cf565b6102d5565b90565b6102f990546102db565b90565b60029061030882610249565b81101561034f5761031891610258565b50906103266000830161029b565b91610333600382016102c2565b9161034c6004610345600385016102ef565b930161029b565b90565b600080fd5b634e487b7160e01b600052602160045260246000fd5b6003111561037457565b610354565b906103838261036a565b565b61038e90610379565b90565b61039a90610385565b9052565b600211156103a857565b610354565b906103b78261039e565b565b6103c2906103ad565b90565b6103ce906103b9565b9052565b61040861040f946103fe6060949897956103f4608086019a60008701906101bb565b6020850190610391565b60408301906103c5565b01906101bb565b565b346104455761044161042c610427366004610214565b6102fc565b906104389492946100b3565b948594856103d2565b0390f35b6100b9565b610453906100c8565b9052565b5190565b60209181520190565b60200190565b906104778160209361044a565b0190565b60200190565b9061049e61049861049184610457565b809361045b565b92610464565b9060005b8181106104af5750505090565b9091926104c86104c2600192865161046a565b9461047b565b91019190916104a2565b5190565b60209181520190565b60200190565b60ff1690565b6104f4906104e5565b9052565b6004111561050257565b610354565b90610511826104f8565b565b61051c90610507565b90565b61052890610513565b9052565b9060408061056293610546600082015160008601906104eb565b6105586020820151602086019061051f565b01519101906104eb565b565b906105718160609361052c565b0190565b60200190565b9061059861059261058b846104d2565b80936104d6565b926104df565b9060005b8181106105a95750505090565b9091926105c26105bc6001928651610564565b94610575565b910191909161059c565b6105d590610385565b9052565b6105e2906103b9565b9052565b906106729060c08061064361063161061f60e0860161060d60008a0151600089019061044a565b60208901518782036020890152610481565b60408801518682036040880152610481565b6060870151858203606087015261057b565b94610656608082015160808601906105cc565b61066860a082015160a08601906105d9565b015191019061044a565b90565b61068b91602082019160008184039101526105e6565b90565b346106be576106ba6106a96106a4366004610214565b610f7c565b6106b16100b3565b91829182610675565b0390f35b6100b9565b60009103126106ce57565b6100be565b60018060a01b031690565b6106ee9060086106f3930261016c565b6106d3565b90565b9061070191546106de565b90565b61070f6000806106f6565b90565b60018060a01b031690565b61073161072c61073692610712565b61011d565b610712565b90565b6107429061071d565b90565b61074e90610739565b90565b61075a90610745565b9052565b919061077290600060208501940190610751565b565b346107a4576107843660046106c3565b6107a061078f610704565b6107976100b3565b9182918261075e565b0390f35b6100b9565b906107b390610120565b600052602052604060002090565b60ff1690565b6107d79060086107dc930261016c565b6107c1565b90565b906107ea91546107c7565b90565b610804906107ff6004916000926107a9565b6107df565b90565b151590565b61081590610807565b9052565b919061082d9060006020850194019061080c565b565b3461085f5761085b61084a610845366004610214565b6107ed565b6108526100b3565b91829182610819565b0390f35b6100b9565b600080fd5b601f801991011690565b634e487b7160e01b600052604160045260246000fd5b9061089390610869565b810190811067ffffffffffffffff8211176108ad57604052565b610873565b906108c56108be6100b3565b9283610889565b565b600080fd5b6108d5816104e5565b036108dc57565b600080fd5b905035906108ee826108cc565b565b600411156108fa57565b600080fd5b9050359061090c826108f0565b565b919060608382031261095c576109559061092860606108b2565b9361093682600083016108e1565b600086015261094882602083016108ff565b60208601526040016108e1565b6040830152565b610864565b610100818303126109a45761097982600083016100e0565b926109a161098a846020850161090e565b9361099881608086016100e0565b9360a00161090e565b90565b6100be565b60000190565b346109e1576109cb6109c2366004610961565b92919091611ec8565b6109d36100b3565b806109dd816109a9565b0390f35b6100b9565b60018060a01b031690565b610a01906008610a06930261016c565b6109e6565b90565b90610a1491546109f1565b90565b610a246001600090610a09565b90565b610a3090610712565b90565b610a3c90610a27565b9052565b9190610a5490600060208501940190610a33565b565b34610a8657610a663660046106c3565b610a82610a71610a17565b610a796100b3565b91829182610a40565b0390f35b6100b9565b34610ab957610aa3610a9e366004610214565b6126b6565b610aab6100b3565b80610ab5816109a9565b0390f35b6100b9565b34610aee57610ace3660046106c3565b610aea610ad9612f45565b610ae16100b3565b918291826101c8565b0390f35b6100b9565b600080fd5b610b0260e06108b2565b90565b600090565b606090565b606090565b600090565b600090565b610b26610af8565b90602080808080808088610b38610b05565b815201610b43610b0a565b815201610b4e610b0a565b815201610b59610b0f565b815201610b64610b14565b815201610b6f610b19565b815201610b7a610b05565b81525050565b610b88610b1e565b90565b60209181520190565b60007f426174746c6520646f6573206e6f742065786973740000000000000000000000910152565b610bc96015602092610b8b565b610bd281610b94565b0190565b610bec9060208101906000818303910152610bbc565b90565b15610bf657565b610bfe6100b3565b62461bcd60e51b815280610c1460048201610bd6565b0390fd5b90565b5490565b67ffffffffffffffff8111610c375760208091020190565b610873565b90610c4e610c4983610c1f565b6108b2565b918252565b369037565b90610c7d610c6583610c3c565b92602080610c738693610c1f565b9201910390610c53565b565b90565b610c96610c91610c9b92610c7f565b61011d565b6100c8565b90565b6001610caa91016100c8565b90565b600052602060002090565b610cc181610c1b565b821015610cdc57610cd3600191610cad565b91020190600090565b610233565b90610ceb82610457565b811015610cfc576020809102010190565b610233565b90610d0b906100c8565b9052565b610d1960e06108b2565b90565b610d269054610287565b90565b60010190565b90610d4c610d46610d3f84610c1b565b809361045b565b92610cad565b9060005b818110610d5d5750505090565b909192610d7d610d77600192610d7287610d1c565b61046a565b94610d29565b9101919091610d50565b90610d9191610d2f565b90565b90610db4610dad92610da46100b3565b93848092610d87565b0383610889565b565b610dbf90610d94565b90565b52565b5490565b67ffffffffffffffff8111610de15760208091020190565b610873565b90610df8610df383610dc9565b6108b2565b918252565b600052602060002090565b60ff1690565b610e1a610e1f91610281565b610e08565b90565b610e2c9054610e0e565b90565b90610e39906104e5565b9052565b60ff1690565b610e4f610e54916102cf565b610e3d565b90565b610e619054610e43565b90565b90610e6e90610507565b9052565b60101c90565b610e84610e8991610e72565b610e08565b90565b610e969054610e78565b90565b610ea360606108b2565b90565b90610ef4610eeb6000610eb7610e99565b94610ece610ec6838301610e22565b838801610e2f565b610ee5610edc838301610e57565b60208801610e64565b01610e8c565b60408401610e2f565b565b610eff90610ea6565b90565b90610f0c82610dc5565b610f1581610de6565b92610f236020850191610dfd565b6000915b838310610f345750505050565b600160208192610f4385610ef6565b815201920192019190610f27565b610f5a90610f02565b90565b52565b90610f6a90610379565b9052565b90610f78906103ad565b9052565b90610f85610b80565b50610fab82610fa5610f9f610f9a6002610249565b6100c8565b916100c8565b10610bef565b610fc0610fba60028490610258565b50610c18565b91610fd5610fd060018501610c1b565b610c58565b90610fe06000610c82565b5b80610fff610ff9610ff460018901610c1b565b6100c8565b916100c8565b101561105c576110579061105261104061103b61101e6003879061013c565b61103561102f60018c018790610cb8565b9061018b565b90610154565b61029b565b61104d8691849092610ce1565b610d01565b610c9e565b610fe1565b50509190918160000161106e9061029b565b9180600101918160020182600301611085906102c2565b9183600301611093906102ef565b936004016110a09061029b565b946110a9610d0f565b9660008801906110b891610d01565b6110c190610db6565b60208701906110cf91610dc2565b60408601906110dd91610dc2565b6110e690610f51565b60608501906110f491610f5d565b608084019061110291610f60565b60a083019061111091610f6e565b60c082019061111e91610d01565b90565b61112d61113291610281565b6107c1565b90565b61113f9054611121565b90565b60007f4167656e7420616c726561647920696e20626174746c65000000000000000000910152565b6111776017602092610b8b565b61118081611142565b0190565b61119a906020810190600081830391015261116a565b90565b156111a457565b6111ac6100b3565b62461bcd60e51b8152806111c260048201611184565b0390fd5b6111d26111d791610281565b6106d3565b90565b6111e490546111c6565b90565b600080fd5b60e01b90565b905051906111ff826100cb565b565b9050519061120e826108cc565b565b9190608083820312611270576112699061122a60806108b2565b9361123882600083016111f2565b600086015261124a82602083016111f2565b602086015261125c82604083016111f2565b6040860152606001611201565b6060830152565b610864565b600080fd5b600080fd5b67ffffffffffffffff811161129d57611299602091610869565b0190565b610873565b60005b8381106112b6575050906000910152565b8060209183015181850152016112a5565b909291926112dc6112d78261127f565b6108b2565b938185526020850190828401116112f8576112f6926112a2565b565b61127a565b9080601f8301121561131b57816020611318935191016112c7565b90565b611275565b919091610120818403126113bf5761133860c06108b2565b9261134681600084016111f2565b600085015261135881602084016111f2565b602085015261136a81604084016111f2565b604085015261137c8160608401611210565b606085015260e08201519167ffffffffffffffff83116113ba576113a5826113b39483016112fd565b6080860152610100016111f2565b60a0830152565b6108c7565b610864565b906020828203126113f557600082015167ffffffffffffffff81116113f0576113ed9201611320565b90565b6100c3565b6100be565b6114026100b3565b3d6000823e3d90fd5b61141590516100c8565b90565b60007f4167656e7420646f6573206e6f74206578697374000000000000000000000000910152565b61144d6014602092610b8b565b61145681611418565b0190565b6114709060208101906000818303910152611440565b90565b1561147a57565b6114826100b3565b62461bcd60e51b8152806114986004820161145a565b0390fd5b6114a690516104e5565b90565b90565b6114c06114bb6114c5926114a9565b61011d565b6104e5565b90565b60007f496e76616c696420616767726573736976656e65737300000000000000000000910152565b6114fd6016602092610b8b565b611506816114c8565b0190565b61152090602081019060008183039101526114f0565b90565b1561152a57565b6115326100b3565b62461bcd60e51b8152806115486004820161150a565b0390fd5b60007f496e76616c6964207269736b20746f6c6572616e636500000000000000000000910152565b6115816016602092610b8b565b61158a8161154c565b0190565b6115a49060208101906000818303910152611574565b90565b156115ae57565b6115b66100b3565b62461bcd60e51b8152806115cc6004820161158e565b0390fd5b60001b90565b906115e260ff916115d0565b9181191691161790565b6115f590610807565b90565b90565b9061161061160b611617926115ec565b6115f8565b82546115d6565b9055565b61162761162c91610281565b6109e6565b90565b611639905461161b565b90565b6116459061071d565b90565b6116519061163c565b90565b61165d90610739565b90565b67ffffffffffffffff1690565b61167681611660565b0361167d57565b600080fd5b9050519061168f8261166d565b565b906020828203126116ab576116a891600001611682565b90565b6100be565b90565b6116c76116c26116cc926116b0565b61011d565b611660565b90565b634e487b7160e01b600052601260045260246000fd5b6116f16116f791611660565b91611660565b908115611702570690565b6116cf565b61171b61171661172092611660565b61011d565b610379565b90565b90565b61173a61173561173f92611723565b61011d565b6100c8565b90565b90565b61175961175461175e92611742565b61011d565b6100c8565b90565b600090565b600090565b611773610e99565b906020808084611781611761565b81520161178c611766565b815201611797611761565b81525050565b6117a561176b565b90565b60005b8281106117b757505050565b6020906117c261179d565b81840152016117ab565b906117f16117d983610de6565b926020806117e78693610dc9565b92019103906117a8565b565b906117fd826104d2565b81101561180e576020809102010190565b610233565b90565b61182060c06108b2565b90565b600052602060002090565b5490565b61183b8161182e565b8210156118565761184d600591611823565b91020190600090565b610233565b634e487b7160e01b600052600060045260246000fd5b9061187e600019916115d0565b9181191691161790565b90565b906118a061189b6118a792610120565b611888565b8254611871565b9055565b5190565b634e487b7160e01b600052601160045260246000fd5b6118d46118da919392936100c8565b926100c8565b916118e68382026100c8565b9281840414901517156118f557565b6118af565b600190818003010490565b1b90565b9190600861192591029161191f60001984611905565b92611905565b9181191691161790565b919061194561194061194d93610120565b611888565b908354611909565b9055565b600090565b61196891611962611951565b9161192f565b565b5b818110611976575050565b806119846000600193611956565b0161196b565b9091828110611999575b505050565b6119b76119b16119ab6119c2956118fa565b926118fa565b92610cad565b91820191019061196a565b388080611994565b906801000000000000000081116119f357816119e86119f193610c1b565b9082815561198a565b565b610873565b611a0182610457565b9167ffffffffffffffff8311611a6557611a2f611a29600192611a2486866119ca565b610464565b92610cad565b92049160005b838110611a425750505050565b6001906020611a58611a538661140b565b611888565b9401938184015501611a35565b610873565b90611a74916119f8565b565b5190565b600190818003010490565b600080910155565b90600003611aa057611a9e90611a85565b565b61185b565b5b818110611ab1575050565b80611abf6000600193611a8d565b01611aa6565b9091828110611ad4575b505050565b611af2611aec611ae6611afd95611a7a565b92611a7a565b92610dfd565b918201910190611aa5565b388080611acf565b90680100000000000000008111611b2e5781611b23611b2c93610dc5565b90828155611ac5565b565b610873565b5190565b611b4b611b46611b50926104e5565b61011d565b6104e5565b90565b90565b90611b6b611b66611b7292611b37565b611b53565b82546115d6565b9055565b611b809051610507565b90565b60081b90565b90611b9661ff0091611b83565b9181191691161790565b611ba990610507565b90565b90565b90611bc4611bbf611bcb92611ba0565b611bac565b8254611b89565b9055565b60101b90565b90611be362ff000091611bcf565b9181191691161790565b90611c02611bfd611c0992611b37565b611b53565b8254611bd5565b9055565b90611c5060406000611c5694611c30828201611c2a84880161149c565b90611b56565b611c48828201611c4260208801611b76565b90611baf565b01920161149c565b90611bed565b565b90611c6291611c0d565b565b611c89611c83611c73846104d2565b93611c7e8585611b05565b6104df565b91610dfd565b6000915b838310611c9a5750505050565b6001602082611cb2611cac8495611b33565b86611c58565b01920192019190611c8d565b90611cc891611c64565b565b611cd49051610379565b90565b611ce090610379565b90565b90565b90611cfb611cf6611d0292611cd7565b611ce3565b82546115d6565b9055565b611d1090516103ad565b90565b611d1c906103ad565b90565b90565b90611d37611d32611d3e92611d13565b611d1f565b8254611b89565b9055565b90611dd360a06004611dd994611d6760008201611d616000880161140b565b9061188b565b611d8060018201611d7a602088016118ab565b90611a6a565b611d9960028201611d9360408801611a76565b90611cbe565b611db260038201611dac60608801611cca565b90611ce6565b611dcb60038201611dc560808801611d06565b90611d22565b01920161140b565b9061188b565b565b9190611dec57611dea91611d42565b565b61185b565b9081549168010000000000000000831015611e215782611e19916001611e1f95018155611832565b90611ddb565b565b610873565b90565b611e3d611e38611e4292611e26565b61011d565b6100c8565b90565b90565b611e5c611e57611e6192611e45565b61011d565b6100c8565b90565b611e73611e79919392936100c8565b926100c8565b8201809211611e8457565b6118af565b611ebf611ec694611eb5606094989795611eab608086019a60008701906101bb565b60208501906101bb565b60408301906101bb565b0190610391565b565b929190611ee8611ee2611edd600487906107a9565b611135565b15610807565b8061244e575b611ef79061119d565b611f376000611f0d611f08826111da565b610745565b632de5aaf790611f2c8892611f206100b3565b958694859384936111ec565b8352600483016101c8565b03915afa90811561244957600091612426575b50611f8b6000611f61611f5c826111da565b610745565b632de5aaf790611f808792611f746100b3565b958694859384936111ec565b8352600483016101c8565b03915afa908115612421576000916123fe575b5090611fac6000820161140b565b611fbf611fb96000610c82565b916100c8565b1415806123d2575b611fd090611473565b611fdc6000840161149c565b611fef611fe960646114ac565b916104e5565b1115806123a6575b61200090611523565b61200c6040840161149c565b61201f61201960646114ac565b916104e5565b11158061237a575b612030906115a7565b61203a6002610249565b92612051600161204c60048a906107a9565b6115fb565b6120676001612062600488906107a9565b6115fb565b61209c602061208661208161207c600161162f565b611648565b611654565b63705fab20906120946100b3565b9384926111ec565b825281806120ac600482016109a9565b03915afa90811561237557600091612347575b5060036120cb906116b3565b6120d4916116e5565b6120dd90611707565b9560026120e990611726565b6120f290610c58565b908882600061210090610c82565b61210991610ce1565b9061211391610d01565b8682600161212090611745565b61212991610ce1565b9061213391610d01565b600261213e90611726565b612147906117cc565b92839060009061215682610c82565b61216090846117f3565b5261216a90610c82565b612173916117f3565b5150829060019061218382611745565b61218d90846117f3565b5261219790611745565b6121a0916117f3565b515060026121ad90611813565b91859190886000916000936121c0611816565b9560008701906121cf91610d01565b60208601906121dd91610dc2565b60408501906121eb91610f5d565b60608401906121f991610f60565b608083019061220791610f6e565b61221090610c82565b60a082019061221e91610d01565b61222791611df1565b806020016122349061140b565b601461223f90611e29565b612248916118c5565b90606001516000016122599061140b565b600561226490611e48565b61226d916118c5565b61227691611e64565b90806020016122849061140b565b601461228f90611e29565b612298916118c5565b90606001516000016122a99061140b565b60056122b490611e48565b6122bd916118c5565b6122c691611e64565b906003836122d39161013c565b866122dd91610154565b906122e79161188b565b6003826122f39161013c565b836122fd91610154565b906123079161188b565b929091927fee1f4a056590adca336ca88ea149bd251d1d2c5ea0530bd96f4724b968713c94936123356100b3565b9384936123429385611e89565b0390a1565b612368915060203d811161236e575b6123608183610889565b810190611691565b386120bf565b503d612356565b6113fa565b5061203061238a6040870161149c565b61239d61239760646114ac565b916104e5565b11159050612027565b506120006123b66000870161149c565b6123c96123c360646114ac565b916104e5565b11159050611ff7565b50611fd06123e26000840161140b565b6123f56123ef6000610c82565b916100c8565b14159050611fc7565b61241b91503d806000833e6124138183610889565b8101906113c4565b38611f9e565b6113fa565b61244391503d806000833e61243b8183610889565b8101906113c4565b38611f4a565b6113fa565b50611ef761246f612469612464600486906107a9565b611135565b15610807565b9050611eee565b60007f426174746c6520697320616c72656164792066696e6973686564000000000000910152565b6124ab601a602092610b8b565b6124b481612476565b0190565b6124ce906020810190600081830391015261249e565b90565b156124d857565b6124e06100b3565b62461bcd60e51b8152806124f6600482016124b8565b0390fd5b60c01b90565b612509906124fa565b90565b61251861251d91611660565b612500565b9052565b90565b612530612535916100c8565b612521565b9052565b60088161254c612554936020969561250c565b018092612524565b0190565b60200190565b5190565b61257661257161257b926116b0565b61011d565b6100c8565b90565b61258781610dc5565b8210156125a257612599600191610dfd565b91020190600090565b610233565b6125b160c06108b2565b90565b52565b52565b90565b906125c7906125ba565b9052565b6125da6125e0919392936100c8565b926100c8565b82039182116125eb57565b6118af565b90565b6125ff612604916125ba565b6125f0565b9052565b612614816020936125f3565b0190565b61262c612627612631926114a9565b61011d565b6100c8565b90565b612640612646916100c8565b916100c8565b908115612651570490565b6116cf565b600091031261266157565b6100be565b90565b61267d61267861268292612666565b61011d565b6100c8565b90565b61268e90612669565b9052565b9160206126b49294936126ad604082019660008301906101bb565b0190612685565b565b906126dc826126d66126d06126cb6002610249565b6100c8565b916100c8565b10610bef565b6126f16126eb60028490610258565b50610c18565b9061271a612701600384016102ef565b61271461270e60006103ad565b916103ad565b146124d1565b61273261272c60018401600090610cb8565b9061018b565b9261274b61274560018501600190610cb8565b9061018b565b9061278c600061276261275d826111da565b610745565b632de5aaf79061278189926127756100b3565b958694859384936111ec565b8352600483016101c8565b03915afa908115612f4057600091612f1d575b50906127e160006127b76127b2826111da565b610745565b632de5aaf7906127d687926127ca6100b3565b958694859384936111ec565b8352600483016101c8565b03915afa908115612f1857600091612ef5575b509261281461280f6128086003859061013c565b8990610154565b61029b565b9661283361282e6128276003869061013c565b8490610154565b61029b565b9661283c611951565b97612845611951565b9861287b602061286561286061285b600161162f565b611648565b611654565b63705fab20906128736100b3565b9384926111ec565b8252818061288b600482016109a9565b03915afa908115612ef057600091612ec2575b506128ca87916128bb6128af6100b3565b93849260208401612539565b60208201810382520382610889565b6128dc6128d68261255e565b91612558565b20906128e86000610c82565b915b826128fe6128f86003612562565b916100c8565b1015612eaf576129a0600061299b8c612992856129898f8c61297b6129809296612972612969612932600286018d9061257e565b50612964612952600361294a60028a0160019061257e565b5098016102c2565b999b61295c6125a7565b9e8f016125b4565b610ef6565b60208c016125b7565b60408a016125b4565b610ef6565b606087016125b7565b60808501610f60565b60a083016125bd565b613175565b93846129b46129ae836100c8565b916100c8565b1015600014612e9f57506129c86000610c82565b5b93889087899192612a21612a0f612a09612a037fcf2d586a11b0df2dc974a66369ad4e68566a0635fd2448e810592eac3d3bedae94610120565b94610120565b94610120565b94612a186100b3565b918291826101c8565b0390a483612a38612a326000610c82565b916100c8565b14612e8857612b186000612b138b612b0a8e612b01612af88c612a6f612a7e612af39b612a636100b3565b92839160208301612608565b60208201810382520382610889565b612a90612a8a8261255e565b91612558565b20998a9496612aea612ae1612aaa6002860160019061257e565b50612adc612aca6003612ac260028a0160009061257e565b5098016102c2565b999b612ad46125a7565b9e8f016125b4565b610ef6565b60208c016125b7565b60408a016125b4565b610ef6565b606087016125b7565b60808501610f60565b60a083016125bd565b613175565b9c8d80612b2d612b27846100c8565b916100c8565b1015600014612e7a575050612b426000610c82565b5b9c889088889192612b9b612b89612b83612b7d7fcf2d586a11b0df2dc974a66369ad4e68566a0635fd2448e810592eac3d3bedae94610120565b94610120565b94610120565b94612b926100b3565b918291826101c8565b0390a48c612bb2612bac6000610c82565b916100c8565b14612c0357612bd5612be4612bfd92612bc96100b3565b92839160208301612608565b60208201810382520382610889565b612bf6612bf08261255e565b91612558565b2092610c9e565b916128ea565b505050919395975091939597849784975b89612c28612c226000610c82565b916100c8565b14612d61575b50505050612c7a9291612c56612c6892612c4c600160038301611d22565b600489910161188b565b612c6360009160046107a9565b6115fb565b612c7560009160046107a9565b6115fb565b612c8c612c8760006111da565b610745565b63953b6a9184603292803b15612d5c57612cba60008094612cc5612cae6100b3565b978896879586946111ec565b845260048401612692565b03925af18015612d5757612d2a575b5091612d12612d0c612d067fc76e6de66e7f50844440b686c8189ef9b89939dfe8f4560382213011ed5d31c795610120565b92610120565b92610120565b92612d1b6100b3565b80612d25816109a9565b0390a4565b612d4a9060003d8111612d50575b612d428183610889565b810190612656565b38612cd4565b503d612d38565b6113fa565b6111e7565b612c7a96959950612e4f9394985091612e3f612e2e612e4493612e29612e18612dcf88612dc9612db960006060612db0612da0612e499f60200161140b565b612daa6014611e29565b906118c5565b9401510161140b565b612dc36005611e48565b906118c5565b90611e64565b92612e12612e0260006060612df9612de96020870161140b565b612df36014611e29565b906118c5565b9401510161140b565b612e0c6005611e48565b906118c5565b90611e64565b94612e236064612618565b906118c5565b612634565b95612e396064612618565b906118c5565b612634565b6100c8565b916100c8565b1015600014612e6b57612c6885612c5683965b92829495612c2e565b612c688195612c568196612e62565b612e83916125cb565b612b43565b505050918094969850989092949698978597612c14565b612eaa9085906125cb565b6129c9565b5099989a92949690509690929496612c14565b612ee3915060203d8111612ee9575b612edb8183610889565b810190611691565b3861289e565b503d612ed1565b6113fa565b612f1291503d806000833e612f0a8183610889565b8101906113c4565b386127f4565b6113fa565b612f3a91503d806000833e612f328183610889565b8101906113c4565b3861279f565b6113fa565b612f4d611951565b50612f586002610249565b90565b90565b612f72612f6d612f7792612f5b565b61011d565b6100c8565b90565b90565b612f91612f8c612f9692612f7a565b61011d565b6100c8565b90565b90565b612fb0612fab612fb592612f99565b61011d565b6104e5565b90565b612fc4612fca916104e5565b916104e5565b908115612fd5570490565b6116cf565b612fee612fe9612ff3926104e5565b61011d565b6100c8565b90565b61300090516125ba565b90565b6bffffffffffffffffffffffff191690565b61301e90613003565b90565b60601c90565b61303361303891613021565b61071d565b90565b61304f61304a61305492610712565b61011d565b6100c8565b90565b613063613069916100c8565b916100c8565b908115613074570690565b6116cf565b90565b61309061308b61309592613079565b61011d565b6104e5565b90565b6130b7906130b16130ab6130bc946104e5565b916125ba565b90611905565b6125ba565b90565b6130d36130ce6130d892611723565b61011d565b6104e5565b90565b6130e76130ed916104e5565b916104e5565b90039060ff82116130fa57565b6118af565b90565b61311661311161311b926130ff565b61011d565b6100c8565b90565b61313261312d61313792611742565b61011d565b6104e5565b90565b61314e613149613153926116b0565b61011d565b6104e5565b90565b90565b61316d61316861317292613156565b61011d565b6100c8565b90565b61317d611951565b506131c16131a7613197600060608186015101510161140b565b6131a16002611726565b906118c5565b6131bb60406060600086015101510161140b565b90611e64565b61332361331361320a6131de60006060604088015101510161140b565b6132046131f460406060818a015101510161140b565b6131fe6002611726565b906118c5565b90611e64565b9261330d6132fd866132f761321f6064612618565b6132296064612618565b9061323960208086015101611b76565b61324c6132466001610507565b91610507565b146000146136f45761326890613262601e612f7d565b90611e64565b5b8361327a6020606083015101611b76565b61328d6132876003610507565b91610507565b146136b0575b6132dc600060206132d36132f1956132cd6132c86132b886866132ec9a01510161149c565b6132c26004612f9c565b90612fb8565b612fda565b90611e64565b9701510161149c565b6132e66004612f9c565b90612fb8565b612fda565b906125cb565b936118c5565b6133076064612618565b90612634565b936118c5565b61331d6064612618565b90612634565b81613336613330836100c8565b916100c8565b11156136a057613345916125cb565b9061337d61336d61336861336361335e60a08601612ff6565b613015565b613027565b61303b565b6133776064612618565b90613057565b61339160206060604085015101510161140b565b6133a461339e6032612669565b916100c8565b11600014613681576133c86133c26133bc6032612669565b5b6100c8565b916100c8565b10613672576134176134076134026133fd6133f86133e860a08701612ff6565b6133f260a061307c565b90613098565b613015565b613027565b61303b565b6134116064612618565b90613057565b61344261343d61342d604060208601510161149c565b61343760026130bf565b90612fb8565b612fda565b9061348161347c61346c6064613467613461604060208a01510161149c565b916114ac565b6130db565b6134766004612f9c565b90612fb8565b612fda565b9161349561348f83926100c8565b916100c8565b10600014613614575050906134b76134c7916134b1600f612f5e565b906118c5565b6134c1600a613102565b90612634565b905b6134d560808201611cca565b6134e86134e26001610379565b91610379565b14806135e7575b600014613522575061350e61351e916135086073613159565b906118c5565b6135186064612618565b90612634565b5b90565b61352e60808201611cca565b61354161353b6002610379565b91610379565b149081613580575b50613554575b61351f565b61356b61357b916135656073613159565b906118c5565b6135756064612618565b90612634565b61354f565b9050613595606080600084015101510161149c565b6135a86135a2600361313a565b916104e5565b149081156135b8575b5038613549565b6135cd9150606060008192015101510161149c565b6135e06135da6004612f9c565b916104e5565b14386135b1565b506135fb606080600084015101510161149c565b61360e613608600161311e565b916104e5565b146134ef565b61363361362e61363992936136296064612618565b6125cb565b6100c8565b916100c8565b11613644575b6134c9565b9061365c61366c916136566005611e48565b906118c5565b613666600a613102565b90612634565b9061363f565b505061367e6000610c82565b90565b6133c86133c261369b60206060604087015101510161140b565b6133bd565b5050506136ad6001611745565b90565b916132dc600060206132d36132f1956132cd6132c86132b886866136e16132ec9b6136db601e612f7d565b90611e64565b9c9a505050505050955050505050613293565b61370360208086015101611b76565b6137166137106002610507565b91610507565b14613721575b613269565b61373861374991613732600f612f5e565b90611e64565b91613743600f612f5e565b90611e64565b9061371c56fea2646970667358221220e7c45f0e7ea86d60d21f09c5f66609827133b6634d148f1996e64cb93640223c64736f6c634300081c0033",
  "linkReferences": {},
  "deployedLinkReferences": {}
}