{
  "_format": "hh-sol-artifact-1",
  "contractName": "ItemFactory",
  "sourceName": "contracts/ItemFactory.sol",
  "abi": [
    {
      "inputs": [
        {
          "internalType": "address",
          "name": "initialOwner",
          "type": "address"
        }
      ],
      "stateMutability": "nonpayable",
      "type": "constructor"
    },
    {
      "inputs": [
        {
          "internalType": "address",
          "name": "sender",
          "type": "address"
        },
        {
          "internalType": "uint256",
          "name": "tokenId",
          "type": "uint256"
        },
        {
          "internalType": "address",
          "name": "owner",
          "type": "address"
        }
      ],
      "name": "ERC721IncorrectOwner",
      "type": "error"
    },
    {
      "inputs": [
        {
          "internalType": "address",
          "name": "operator",
          "type": "address"
        },
        {
          "internalType": "uint256",
          "name": "tokenId",
          "type": "uint256"
        }
      ],
      "name": "ERC721InsufficientApproval",
      "type": "error"
    },
    {
      "inputs": [
        {
          "internalType": "address",
          "name": "approver",
          "type": "address"
        }
      ],
      "name": "ERC721InvalidApprover",
      "type": "error"
    },
    {
      "inputs": [
        {
          "internalType": "address",
          "name": "operator",
          "type": "address"
        }
      ],
      "name": "ERC721InvalidOperator",
      "type": "error"
    },
    {
      "inputs": [
        {
          "internalType": "address",
          "name": "owner",
          "type": "address"
        }
      ],
      "name": "ERC721InvalidOwner",
      "type": "error"
    },
    {
      "inputs": [
        {
          "internalType": "address",
          "name": "receiver",
          "type": "address"
        }
      ],
      "name": "ERC721InvalidReceiver",
      "type": "error"
    },
    {
      "inputs": [
        {
          "internalType": "address",
          "name": "sender",
          "type": "address"
        }
      ],
      "name": "ERC721InvalidSender",
      "type": "error"
    },
    {
      "inputs": [
        {
          "internalType": "uint256",
          "name": "tokenId",
          "type": "uint256"
        }
      ],
      "name": "ERC721NonexistentToken",
      "type": "error"
    },
    {
      "inputs": [
        {
          "internalType": "address",
          "name": "owner",
          "type": "address"
        }
      ],
      "name": "OwnableInvalidOwner",
      "type": "error"
    },
    {
      "inputs": [
        {
          "internalType": "address",
          "name": "account",
          "type": "address"
        }
      ],
      "name": "OwnableUnauthorizedAccount",
      "type": "error"
    },
    {
      "anonymous": false,
      "inputs": [
        {
          "indexed": true,
          "internalType": "address",
          "name": "owner",
          "type": "address"
        },
        {
          "indexed": true,
          "internalType": "address",
          "name": "approved",
          "type": "address"
        },
        {
          "indexed": true,
          "internalType": "uint256",
          "name": "tokenId",
          "type": "uint256"
        }
      ],
      "name": "Approval",
      "type": "event"
    },
    {
      "anonymous": false,
      "inputs": [
        {
          "indexed": true,
          "internalType": "address",
          "name": "owner",
          "type": "address"
        },
        {
          "indexed": true,
          "internalType": "address",
          "name": "operator",
          "type": "address"
        },
        {
          "indexed": false,
          "internalType": "bool",
          "name": "approved",
          "type": "bool"
        }
      ],
      "name": "ApprovalForAll",
      "type": "event"
    },
    {
      "anonymous": false,
      "inputs": [
        {
          "indexed": true,
          "internalType": "uint256",
          "name": "tokenId",
          "type": "uint256"
        }
      ],
      "name": "ItemBurned",
      "type": "event"
    },
    {
      "anonymous": false,
      "inputs": [
        {
          "indexed": true,
          "internalType": "uint256",
          "name": "tokenId",
          "type": "uint256"
        },
        {
          "indexed": false,
          "internalType": "uint8",
          "name": "itemType",
          "type": "uint8"
        },
        {
          "indexed": false,
          "internalType": "uint256",
          "name": "power",
          "type": "uint256"
        }
      ],
      "name": "ItemMinted",
      "type": "event"
    },
    {
      "anonymous": false,
      "inputs": [
        {
          "indexed": true,
          "internalType": "address",
          "name": "previousOwner",
          "type": "address"
        },
        {
          "indexed": true,
          "internalType": "address",
          "name": "newOwner",
          "type": "address"
        }
      ],
      "name": "OwnershipTransferred",
      "type": "event"
    },
    {
      "anonymous": false,
      "inputs": [
        {
          "indexed": true,
          "internalType": "address",
          "name": "from",
          "type": "address"
        },
        {
          "indexed": true,
          "internalType": "address",
          "name": "to",
          "type": "address"
        },
        {
          "indexed": true,
          "internalType": "uint256",
          "name": "tokenId",
          "type": "uint256"
        }
      ],
      "name": "Transfer",
      "type": "event"
    },
    {
      "inputs": [
        {
          "internalType": "address",
          "name": "to",
          "type": "address"
        },
        {
          "internalType": "uint256",
          "name": "tokenId",
          "type": "uint256"
        }
      ],
      "name": "approve",
      "outputs": [],
      "stateMutability": "nonpayable",
      "type": "function"
    },
    {
      "inputs": [
        {
          "internalType": "address",
          "name": "owner",
          "type": "address"
        }
      ],
      "name": "balanceOf",
      "outputs": [
        {
          "internalType": "uint256",
          "name": "",
          "type": "uint256"
        }
      ],
      "stateMutability": "view",
      "type": "function"
    },
    {
      "inputs": [
        {
          "internalType": "uint256",
          "name": "tokenId",
          "type": "uint256"
        }
      ],
      "name": "burn",
      "outputs": [],
      "stateMutability": "nonpayable",
      "type": "function"
    },
    {
      "inputs": [],
      "name": "craftingContract",
      "outputs": [
        {
          "internalType": "address",
          "name": "",
          "type": "address"
        }
      ],
      "stateMutability": "view",
      "type": "function"
    },
    {
      "inputs": [
        {
          "internalType": "uint256",
          "name": "tokenId",
          "type": "uint256"
        }
      ],
      "name": "exists",
      "outputs": [
        {
          "internalType": "bool",
          "name": "",
          "type": "bool"
        }
      ],
      "stateMutability": "view",
      "type": "function"
    },
    {
      "inputs": [
        {
          "internalType": "uint256",
          "name": "tokenId",
          "type": "uint256"
        }
      ],
      "name": "getApproved",
      "outputs": [
        {
          "internalType": "address",
          "name": "",
          "type": "address"
        }
      ],
      "stateMutability": "view",
      "type": "function"
    },
    {
      "inputs": [
        {
          "internalType": "uint256",
          "name": "_tokenId",
          "type": "uint256"
        }
      ],
      "name": "getItem",
      "outputs": [
        {
          "components": [
            {
              "internalType": "uint256",
              "name": "id",
              "type": "uint256"
            },
            {
              "internalType": "uint8",
              "name": "itemType",
              "type": "uint8"
            },
            {
              "internalType": "uint256",
              "name": "power",
              "type": "uint256"
            }
          ],
          "internalType": "struct ItemFactory.Item",
          "name": "",
          "type": "tuple"
        }
      ],
      "stateMutability": "view",
      "type": "function"
    },
    {
      "inputs": [
        {
          "internalType": "address",
          "name": "owner",
          "type": "address"
        },
        {
          "internalType": "address",
          "name": "operator",
          "type": "address"
        }
      ],
      "name": "isApprovedForAll",
      "outputs": [
        {
          "internalType": "bool",
          "name": "",
          "type": "bool"
        }
      ],
      "stateMutability": "view",
      "type": "function"
    },
    {
      "inputs": [
        {
          "internalType": "uint256",
          "name": "",
          "type": "uint256"
        }
      ],
      "name": "items",
      "outputs": [
        {
          "internalType": "uint256",
          "name": "id",
          "type": "uint256"
        },
        {
          "internalType": "uint8",
          "name": "itemType",
          "type": "uint8"
        },
        {
          "internalType": "uint256",
          "name": "power",
          "type": "uint256"
        }
      ],
      "stateMutability": "view",
      "type": "function"
    },
    {
      "inputs": [
        {
          "internalType": "address",
          "name": "to",
          "type": "address"
        },
        {
          "internalType": "uint8",
          "name": "_itemType",
          "type": "uint8"
        },
        {
          "internalType": "uint256",
          "name": "_power",
          "type": "uint256"
        }
      ],
      "name": "mint",
      "outputs": [
        {
          "internalType": "uint256",
          "name": "",
          "type": "uint256"
        }
      ],
      "stateMutability": "nonpayable",
      "type": "function"
    },
    {
      "inputs": [
        {
          "internalType": "address",
          "name": "to",
          "type": "address"
        },
        {
          "internalType": "uint8",
          "name": "_itemType",
          "type": "uint8"
        },
        {
          "internalType": "uint256",
          "name": "_power",
          "type": "uint256"
        }
      ],
      "name": "mintForTesting",
      "outputs": [
        {
          "internalType": "uint256",
          "name": "",
          "type": "uint256"
        }
      ],
      "stateMutability": "nonpayable",
      "type": "function"
    },
    {
      "inputs": [],
      "name": "name",
      "outputs": [
        {
          "internalType": "string",
          "name": "",
          "type": "string"
        }
      ],
      "stateMutability": "view",
      "type": "function"
    },
    {
      "inputs": [],
      "name": "owner",
      "outputs": [
        {
          "internalType": "address",
          "name": "",
          "type": "address"
        }
      ],
      "stateMutability": "view",
      "type": "function"
    },
    {
      "inputs": [
        {
          "internalType": "uint256",
          "name": "tokenId",
          "type": "uint256"
        }
      ],
      "name": "ownerOf",
      "outputs": [
        {
          "internalType": "address",
          "name": "",
          "type": "address"
        }
      ],
      "stateMutability": "view",
      "type": "function"
    },
    {
      "inputs": [],
      "name": "renounceOwnership",
      "outputs": [],
      "stateMutability": "nonpayable",
      "type": "function"
    },
    {
      "inputs": [
        {
          "internalType": "address",
          "name": "from",
          "type": "address"
        },
        {
          "internalType": "address",
          "name": "to",
          "type": "address"
        },
        {
          "internalType": "uint256",
          "name": "tokenId",
          "type": "uint256"
        }
      ],
      "name": "safeTransferFrom",
      "outputs": [],
      "stateMutability": "nonpayable",
      "type": "function"
    },
    {
      "inputs": [
        {
          "internalType": "address",
          "name": "from",
          "type": "address"
        },
        {
          "internalType": "address",
          "name": "to",
          "type": "address"
        },
        {
          "internalType": "uint256",
          "name": "tokenId",
          "type": "uint256"
        },
        {
          "internalType": "bytes",
          "name": "data",
          "type": "bytes"
        }
      ],
      "name": "safeTransferFrom",
      "outputs": [],
      "stateMutability": "nonpayable",
      "type": "function"
    },
    {
      "inputs": [
        {
          "internalType": "address",
          "name": "operator",
          "type": "address"
        },
        {
          "internalType": "bool",
          "name": "approved",
          "type": "bool"
        }
      ],
      "name": "setApprovalForAll",
      "outputs": [],
      "stateMutability": "nonpayable",
      "type": "function"
    },
    {
      "inputs": [
        {
          "internalType": "address",
          "name": "_craftingAddress",
          "type": "address"
        }
      ],
      "name": "setCraftingContract",
      "outputs": [],
      "stateMutability": "nonpayable",
      "type": "function"
    },
    {
      "inputs": [
        {
          "internalType": "bytes4",
          "name": "interfaceId",
          "type": "bytes4"
        }
      ],
      "name": "supportsInterface",
      "outputs": [
        {
          "internalType": "bool",
          "name": "",
          "type": "bool"
        }
      ],
      "stateMutability": "view",
      "type": "function"
    },
    {
      "inputs": [],
      "name": "symbol",
      "outputs": [
        {
          "internalType": "string",
          "name": "",
          "type": "string"
        }
      ],
      "stateMutability": "view",
      "type": "function"
    },
    {
      "inputs": [],
      "name": "tokenIdCounter",
      "outputs": [
        {
          "internalType": "uint256",
          "name": "",
          "type": "uint256"
        }
      ],
      "stateMutability": "view",
      "type": "function"
    },
    {
      "inputs": [
        {
          "internalType": "uint256",
          "name": "tokenId",
          "type": "uint256"
        }
      ],
      "name": "tokenURI",
      "outputs": [
        {
          "internalType": "string",
          "name": "",
          "type": "string"
        }
      ],
      "stateMutability": "view",
      "type": "function"
    },
    {
      "inputs": [
        {
          "internalType": "address",
          "name": "from",
          "type": "address"
        },
        {
          "internalType": "address",
          "name": "to",
          "type": "address"
        },
        {
          "internalType": "uint256",
          "name": "tokenId",
          "type": "uint256"
        }
      ],
      "name": "transferFrom",
      "outputs": [],
      "stateMutability": "nonpayable",
      "type": "function"
    },
    {
      "inputs": [
        {
          "internalType": "address",
          "name": "newOwner",
          "type": "address"
        }
      ],
      "name": "transferOwnership",
      "outputs": [],
      "stateMutability": "nonpayable",
      "type": "function"
    }
  ],
  "bytecode": "0x60806040523461002f576100196100146100fa565b61026c565b610021610034565b612c3a6106a68239612c3a90f35b61003a565b60405190565b600080fd5b601f801991011690565b634e487b7160e01b600052604160045260246000fd5b906100699061003f565b810190811060018060401b0382111761008157604052565b610049565b90610099610092610034565b928361005f565b565b600080fd5b60018060a01b031690565b6100b4906100a0565b90565b6100c0816100ab565b036100c757565b600080fd5b905051906100d9826100b7565b565b906020828203126100f5576100f2916000016100cc565b90565b61009b565b6101186132e08038038061010d81610086565b9283398101906100db565b90565b60018060401b0381116101375761013360209161003f565b0190565b610049565b9061014e6101498361011b565b610086565b918252565b60007f4974656d4e465400000000000000000000000000000000000000000000000000910152565b610185600761013c565b9061019260208301610153565b565b61019c61017b565b90565b60007f49544d0000000000000000000000000000000000000000000000000000000000910152565b6101d1600361013c565b906101de6020830161019f565b565b6101e86101c7565b90565b90565b90565b90565b61020861020361020d926101eb565b6101f1565b6101ee565b90565b60001b90565b9061022360001991610210565b9181191691161790565b61024161023c610246926101ee565b6101f1565b6101ee565b90565b90565b9061026161025c6102689261022d565b610249565b8254610216565b9055565b61028690610278610194565b6102806101e0565b916102e7565b61029a61029360006101f4565b600861024c565b565b6102b06102ab6102b5926101eb565b6101f1565b6100a0565b90565b6102c19061029c565b90565b6102cd906100ab565b9052565b91906102e5906000602085019401906102c4565b565b916102f191610582565b8061030d61030761030260006102b8565b6100ab565b916100ab565b1461031d5761031b90610644565b565b61034261032a60006102b8565b6000918291631e4fbdf760e01b8352600483016102d1565b0390fd5b5190565b634e487b7160e01b600052602260045260246000fd5b9060016002830492168015610380575b602083101461037b57565b61034a565b91607f1691610370565b600052602060002090565b601f602091010490565b1b90565b919060086103bf9102916103b96000198461039f565b9261039f565b9181191691161790565b91906103df6103da6103e79361022d565b610249565b9083546103a3565b9055565b600090565b610402916103fc6103eb565b916103c9565b565b5b818110610410575050565b8061041e60006001936103f0565b01610405565b9190601f8111610434575b505050565b6104406104659361038a565b90602061044c84610395565b8301931061046d575b61045e90610395565b0190610404565b38808061042f565b915061045e81929050610455565b1c90565b90610490906000199060080261047b565b191690565b8161049f9161047f565b906002021790565b906104b181610346565b9060018060401b038211610571576104d3826104cd8554610360565b85610424565b602090601f8311600114610508579180916104f7936000926104fc575b5050610495565b90555b565b909150015138806104f0565b601f198316916105178561038a565b9260005b8181106105595750916002939185600196941061053f575b505050020190556104fa565b61054f910151601f84169061047f565b9055388080610533565b9193602060018192878701518155019501920161051b565b610049565b90610580916104a7565b565b90610591610598926000610576565b6001610576565b565b60001c90565b60018060a01b031690565b6105b76105bc9161059a565b6105a0565b90565b6105c990546105ab565b90565b906105dd60018060a01b0391610210565b9181191691161790565b6105fb6105f6610600926100a0565b6101f1565b6100a0565b90565b61060c906105e7565b90565b61061890610603565b90565b90565b9061063361062e61063a9261060f565b61061b565b82546105cc565b9055565b60000190565b61064e60066105bf565b61065982600661061e565b9061068d6106877f8be0079c531659141344cd1fd0a4f28419497f9722a3daafe3b4186f6b6457e09361060f565b9161060f565b91610696610034565b806106a08161063e565b0390a356fe60806040526004361015610013575b610d5c565b61001e6000356101ad565b806301ffc9a7146101a857806306fdde03146101a3578063081812fc1461019e578063095ea7b31461019957806323b872dd146101945780633129e7731461018f57806342842e0e1461018a57806342966c68146101855780634ed387b2146101805780634f558e791461017b5780636352211e1461017657806370a0823114610171578063715018a61461016c57806384ff3382146101675780638da5cb5b1461016257806395d89b411461015d57806398bdf6f514610158578063a22cb46514610153578063b88d4fde1461014e578063bfb231d214610149578063c87b56dd14610144578063da5f4f911461013f578063e985e9c51461013a578063f2fde38b146101355763f8e59b600361000e57610d26565b610cf3565b610cbd565b610c5a565b610be4565b610bac565b610a7d565b610903565b61087c565b61080a565b6107d5565b6107a2565b61076f565b61073a565b6106e6565b6106b1565b61067b565b6105c6565b610592565b61055d565b6104bb565b61044c565b6103bf565b61030a565b61023f565b60e01c90565b60405190565b600080fd5b600080fd5b600080fd5b63ffffffff60e01b1690565b6101dd816101c8565b036101e457565b600080fd5b905035906101f6826101d4565b565b906020828203126102125761020f916000016101e9565b90565b6101be565b151590565b61022590610217565b9052565b919061023d9060006020850194019061021c565b565b3461026f5761026b61025a6102553660046101f8565b610d66565b6102626101b3565b91829182610229565b0390f35b6101b9565b600091031261027f57565b6101be565b5190565b60209181520190565b60005b8381106102a5575050906000910152565b806020918301518185015201610294565b601f801991011690565b6102df6102e86020936102ed936102d681610284565b93848093610288565b95869101610291565b6102b6565b0190565b61030791602082019160008184039101526102c0565b90565b3461033a5761031a366004610274565b610336610325610ef1565b61032d6101b3565b918291826102f1565b0390f35b6101b9565b90565b61034b8161033f565b0361035257565b600080fd5b9050359061036482610342565b565b906020828203126103805761037d91600001610357565b90565b6101be565b60018060a01b031690565b61039990610385565b90565b6103a590610390565b9052565b91906103bd9060006020850194019061039c565b565b346103ef576103eb6103da6103d5366004610366565b610f0c565b6103e26101b3565b918291826103a9565b0390f35b6101b9565b6103fd81610390565b0361040457565b600080fd5b90503590610416826103f4565b565b9190604083820312610441578061043561043e9260008601610409565b93602001610357565b90565b6101be565b60000190565b3461047b5761046561045f366004610418565b90610f2b565b61046d6101b3565b8061047781610446565b0390f35b6101b9565b90916060828403126104b6576104b361049c8460008501610409565b936104aa8160208601610409565b93604001610357565b90565b6101be565b346104ea576104d46104ce366004610480565b91610f9f565b6104dc6101b3565b806104e681610446565b0390f35b6101b9565b6104f89061033f565b9052565b60ff1690565b61050b906104fc565b9052565b9060408061054593610529600082015160008601906104ef565b61053b60208201516020860190610502565b01519101906104ef565b565b919061055b9060006060850194019061050f565b565b3461058d57610589610578610573366004610366565b611191565b6105806101b3565b91829182610547565b0390f35b6101b9565b346105c1576105ab6105a5366004610480565b91611230565b6105b36101b3565b806105bd81610446565b0390f35b6101b9565b346105f4576105de6105d9366004610366565b611381565b6105e66101b3565b806105f081610446565b0390f35b6101b9565b610602816104fc565b0361060957565b600080fd5b9050359061061b826105f9565b565b9091606082840312610653576106506106398460008501610409565b93610647816020860161060e565b93604001610357565b90565b6101be565b6106619061033f565b9052565b919061067990600060208501940190610658565b565b346106ac576106a861069761069136600461061d565b9161173a565b61069f6101b3565b91829182610665565b0390f35b6101b9565b346106e1576106dd6106cc6106c7366004610366565b611750565b6106d46101b3565b91829182610229565b0390f35b6101b9565b34610716576107126107016106fc366004610366565b611782565b6107096101b3565b918291826103a9565b0390f35b6101b9565b906020828203126107355761073291600001610409565b90565b6101be565b3461076a5761076661075561075036600461071b565b6117e3565b61075d6101b3565b91829182610665565b0390f35b6101b9565b3461079d5761077f366004610274565b610787611872565b61078f6101b3565b8061079981610446565b0390f35b6101b9565b346107d0576107ba6107b536600461071b565b6118da565b6107c26101b3565b806107cc81610446565b0390f35b6101b9565b34610805576107e5366004610274565b6108016107f06118e5565b6107f86101b3565b918291826103a9565b0390f35b6101b9565b3461083a5761081a366004610274565b6108366108256118fb565b61082d6101b3565b918291826102f1565b0390f35b6101b9565b1c90565b90565b61085690600861085b930261083f565b610843565b90565b906108699154610846565b90565b610879600860009061085e565b90565b346108ac5761088c366004610274565b6108a861089761086c565b61089f6101b3565b91829182610665565b0390f35b6101b9565b6108ba81610217565b036108c157565b600080fd5b905035906108d3826108b1565b565b91906040838203126108fe57806108f26108fb9260008601610409565b936020016108c6565b90565b6101be565b346109325761091c6109163660046108d5565b90611911565b6109246101b3565b8061092e81610446565b0390f35b6101b9565b600080fd5b600080fd5b634e487b7160e01b600052604160045260246000fd5b90610961906102b6565b810190811067ffffffffffffffff82111761097b57604052565b610941565b9061099361098c6101b3565b9283610957565b565b67ffffffffffffffff81116109b3576109af6020916102b6565b0190565b610941565b90826000939282370152565b909291926109d96109d482610995565b610980565b938185526020850190828401116109f5576109f3926109b8565b565b61093c565b9080601f83011215610a1857816020610a15933591016109c4565b90565b610937565b90608082820312610a7857610a358160008401610409565b92610a438260208501610409565b92610a518360408301610357565b92606082013567ffffffffffffffff8111610a7357610a7092016109fa565b90565b6101c3565b6101be565b34610aaf57610a99610a90366004610a1d565b92919091611927565b610aa16101b3565b80610aab81610446565b0390f35b6101b9565b90565b610acb610ac6610ad09261033f565b610ab4565b61033f565b90565b90610add90610ab7565b600052602052604060002090565b60001c90565b610afd610b0291610aeb565b610843565b90565b610b0f9054610af1565b90565b60ff1690565b610b24610b2991610aeb565b610b12565b90565b610b369054610b18565b90565b610b44906007610ad3565b610b5060008201610b05565b91610b696002610b6260018501610b2c565b9301610b05565b90565b610b75906104fc565b9052565b604090610ba3610baa9496959396610b9960608401986000850190610658565b6020830190610b6c565b0190610658565b565b34610bdf57610bdb610bc7610bc2366004610366565b610b39565b610bd29391936101b3565b93849384610b79565b0390f35b6101b9565b34610c1457610c10610bff610bfa366004610366565b6119ed565b610c076101b3565b918291826102f1565b0390f35b6101b9565b60018060a01b031690565b610c34906008610c39930261083f565b610c19565b90565b90610c479154610c24565b90565b610c576009600090610c3c565b90565b34610c8a57610c6a366004610274565b610c86610c75610c4a565b610c7d6101b3565b918291826103a9565b0390f35b6101b9565b9190604083820312610cb85780610cac610cb59260008601610409565b93602001610409565b90565b6101be565b34610cee57610cea610cd9610cd3366004610c8f565b90611ab2565b610ce16101b3565b91829182610229565b0390f35b6101b9565b34610d2157610d0b610d0636600461071b565b611b42565b610d136101b3565b80610d1d81610446565b0390f35b6101b9565b34610d5757610d53610d42610d3c36600461061d565b91611c27565b610d4a6101b3565b91829182610665565b0390f35b6101b9565b600080fd5b600090565b610d6e610d61565b5080610d89610d836380ac58cd60e01b6101c8565b916101c8565b148015610dad575b908115610d9d575b5090565b610da79150611c3d565b38610d99565b5080610dc8610dc2635b5e139f60e01b6101c8565b916101c8565b14610d91565b606090565b634e487b7160e01b600052602260045260246000fd5b9060016002830492168015610e09575b6020831014610e0457565b610dd3565b91607f1691610df9565b60209181520190565b600052602060002090565b9060009291805490610e42610e3b83610de9565b8094610e13565b91600181169081600014610e9b5750600114610e5e575b505050565b610e6b9192939450610e1c565b916000925b818410610e835750500190388080610e59565b60018160209295939554848601520191019290610e70565b92949550505060ff1916825215156020020190388080610e59565b90610ec091610e27565b90565b90610ee3610edc92610ed36101b3565b93848092610eb6565b0383610957565b565b610eee90610ec3565b90565b610ef9610dce565b50610f046000610ee5565b90565b600090565b610f2890610f18610f07565b50610f2281611c63565b50611cd3565b90565b90610f3f9190610f39611cf2565b91611cff565b565b90565b610f58610f53610f5d92610f41565b610ab4565b610385565b90565b610f6990610f44565b90565b604090610f96610f9d9496959396610f8c6060840198600085019061039c565b6020830190610658565b019061039c565b565b919080610fbd610fb7610fb26000610f60565b610390565b91610390565b1461101557610fd59082610fcf611cf2565b91611d4a565b9182610fe9610fe383610390565b91610390565b03610ff357505050565b61101190919260009384936364283d7b60e01b855260048501610f6c565b0390fd5b61103a6110226000610f60565b6000918291633250574960e11b8352600483016103a9565b0390fd5b6110486060610980565b90565b600090565b600090565b61105d61103e565b90602080808461106b61104b565b815201611076611050565b81520161108161104b565b81525050565b61108f611055565b90565b60007f4974656d20646f6573206e6f7420657869737400000000000000000000000000910152565b6110c76013602092610288565b6110d081611092565b0190565b6110ea90602081019060008183039101526110ba565b90565b156110f457565b6110fc6101b3565b62461bcd60e51b815280611112600482016110d4565b0390fd5b906111209061033f565b9052565b9061112e906104fc565b9052565b9061118361117a600261114361103e565b9461115c61115360008301610b05565b60008801611116565b61117461116b60018301610b2c565b60208801611124565b01610b05565b60408401611116565b565b61118e90611132565b90565b6111d66111db916111a0611087565b506111cf6111ad82611ed1565b6111c86111c26111bd6000610f60565b610390565b91610390565b14156110ed565b6007610ad3565b611185565b90565b67ffffffffffffffff81116111fc576111f86020916102b6565b0190565b610941565b9061121361120e836111de565b610980565b918252565b6112226000611201565b90565b61122d611218565b90565b91611244929161123e611225565b92611927565b565b60007f43616c6c6572206973206e6f74206f776e6572206e6f7220617070726f766564910152565b61127a60208092610288565b61128381611246565b0190565b61129d906020810190600081830391015261126e565b90565b156112a757565b6112af6101b3565b62461bcd60e51b8152806112c560048201611287565b0390fd5b1b90565b919060086112e99102916112e3600019846112c9565b926112c9565b9181191691161790565b90565b919061130c61130761131493610ab7565b6112f3565b9083546112cd565b9055565b600090565b61132f91611329611318565b916112f6565b565b60006002611351926113458380830161131d565b8260018201550161131d565b565b634e487b7160e01b600052600060045260246000fd5b9060000361137c5761137a90611331565b565b611353565b61139361138d82611750565b15610217565b611414576113b36113ae6113a683611ed1565b338491611ef0565b6112a0565b6113c960006113c460078490610ad3565b611369565b6113d281611f91565b6113fc7fc6eb113408f238574359334840f6fe1ced3001faf98cb0ae3fac7f64b5d6102591610ab7565b906114056101b3565b8061140f81610446565b0390a2565b611430906000918291637e27328960e01b835260048301610665565b0390fd5b61144061144591610aeb565b610c19565b90565b6114529054611434565b90565b60007f4f6e6c79204372616674696e6720636f6e74726163742063616e206d696e7400910152565b61148a601f602092610288565b61149381611455565b0190565b6114ad906020810190600081830391015261147d565b90565b156114b757565b6114bf6101b3565b62461bcd60e51b8152806114d560048201611497565b0390fd5b9061150a939291611505336114ff6114f96114f46009611448565b610390565b91610390565b146114b0565b611677565b90565b634e487b7160e01b600052601160045260246000fd5b61152c9061033f565b600019811461153b5760010190565b61150d565b60001b90565b9061155360001991611540565b9181191691161790565b9061157261156d61157992610ab7565b6112f3565b8254611546565b9055565b6115876060610980565b90565b611594905161033f565b90565b6115a190516104fc565b90565b906115b060ff91611540565b9181191691161790565b6115ce6115c96115d3926104fc565b610ab4565b6104fc565b90565b90565b906115ee6115e96115f5926115ba565b6115d6565b82546115a4565b9055565b9061163f604060026116459461161e600082016116186000880161158a565b9061155d565b6116376001820161163160208801611597565b906115d9565b01920161158a565b9061155d565b565b90611651916115f9565b565b91602061167592949361166e60408201966000830190610b6c565b0190610658565b565b929190925061169861169161168c6008610b05565b611523565b600861155d565b6116ad6116a56008610b05565b938490611ff2565b6116f2836116e1836116d886916116cf6116c561157d565b9560008701611116565b60208501611124565b60408301611116565b6116ed60078690610ad3565b611647565b82909161171f7f086aaf59215d651eeba48fe8f00d81acaacbd979bb0afe254cb73c41e3a082c592610ab7565b9261173461172b6101b3565b92839283611653565b0390a290565b9061174d9291611748611318565b6114d9565b90565b6117629061175c610d61565b50611ed1565b61177d6117776117726000610f60565b610390565b91610390565b141590565b6117949061178e610f07565b50611c63565b90565b6117ab6117a66117b092610385565b610ab4565b610385565b90565b6117bc90611797565b90565b6117c8906117b3565b90565b906117d5906117bf565b600052602052604060002090565b6117eb611318565b50806118086118026117fd6000610f60565b610390565b91610390565b146118235761181b6118209160036117cb565b610b05565b90565b6118486118306000610f60565b60009182916322718ad960e21b8352600483016103a9565b0390fd5b611854612008565b61185c61185e565b565b61187061186b6000610f60565b612057565b565b61187a61184c565b565b61188d90611888612008565b6118cd565b565b906118a060018060a01b0391611540565b9181191691161790565b90565b906118c26118bd6118c9926117bf565b6118aa565b825461188f565b9055565b6118d89060096118ad565b565b6118e39061187c565b565b6118ed610f07565b506118f86006611448565b90565b611903610dce565b5061190e6001610ee5565b90565b6119259161191d611cf2565b9190916120e7565b565b9161194b939161193984828491610f9f565b611941611cf2565b93909192936122b7565b565b90565b5190565b61196861196361196d92610f41565b610ab4565b61033f565b90565b611978611218565b90565b905090565b6119a561199c9260209261199381610284565b9485809361197b565b93849101610291565b0190565b6119b7906119bd9392611980565b90611980565b90565b6119df92916119eb916119d16101b3565b9485926020840192836119a9565b90810382520383610957565b565b6119f5610dce565b506119ff81611c63565b50611a08612413565b90611a1a611a158361194d565b611950565b611a2d611a276000611954565b9161033f565b11600014611a4c57611a42611a4892916124b9565b906119c0565b5b90565b5050611a56611970565b611a49565b90611a65906117bf565b600052602052604060002090565b90611a7d906117bf565b600052602052604060002090565b60ff1690565b611a9d611aa291610aeb565b611a8b565b90565b611aaf9054611a91565b90565b611ad791611acd611ad292611ac5610d61565b506005611a5b565b611a73565b611aa5565b90565b611aeb90611ae6612008565b611aed565b565b80611b09611b03611afe6000610f60565b610390565b91610390565b14611b1957611b1790612057565b565b611b3e611b266000610f60565b6000918291631e4fbdf760e01b8352600483016103a9565b0390fd5b611b4b90611ada565b565b90611b61939291611b5c612008565b611b64565b90565b9291909250611b85611b7e611b796008610b05565b611523565b600861155d565b611b9a611b926008610b05565b938490611ff2565b611bdf83611bce83611bc58691611bbc611bb261157d565b9560008701611116565b60208501611124565b60408301611116565b611bda60078690610ad3565b611647565b829091611c0c7f086aaf59215d651eeba48fe8f00d81acaacbd979bb0afe254cb73c41e3a082c592610ab7565b92611c21611c186101b3565b92839283611653565b0390a290565b90611c3a9291611c35611318565b611b4d565b90565b611c45610d61565b50611c5f611c596301ffc9a760e01b6101c8565b916101c8565b1490565b611c6b610f07565b50611c7581611ed1565b9081611c92611c8c611c876000610f60565b610390565b91610390565b14611c9b575090565b611cb7906000918291637e27328960e01b835260048301610665565b0390fd5b90611cc590610ab7565b600052602052604060002090565b611cea611cef91611ce2610f07565b506004611cbb565b611448565b90565b611cfa610f07565b503390565b91611d0d9291600192612563565b565b90565b611d26611d21611d2b92611d0f565b610ab4565b61033f565b90565b90611d39910361033f565b90565b90611d47910161033f565b90565b90611d53610f07565b50611d5d81611ed1565b9280611d7a611d74611d6f6000610f60565b610390565b91610390565b03611ebe575b5082611d9d611d97611d926000610f60565b610390565b91610390565b03611e67575b81611dbf611db9611db46000610f60565b610390565b91610390565b03611e31575b611dda82611dd560028490611cbb565b6118ad565b8291611e18611e12611e0c7fddf252ad1be2c89b69c2b068fc378daa952ba7f163c4a11628f55a4df523b3ef956117bf565b926117bf565b92610ab7565b92611e216101b3565b80611e2b81610446565b0390a490565b611e62611e3e6001611d12565b611e5c611e4d600386906117cb565b91611e5783610b05565b611d3c565b9061155d565b611dc5565b611e88611e746000610f60565b82611e7f6000610f60565b90600092612563565b611eb9611e956001611d12565b611eb3611ea4600387906117cb565b91611eae83610b05565b611d2e565b9061155d565b611da3565b611ecb90849083916126d4565b38611d80565b611ee8611eed91611ee0610f07565b506002611cbb565b611448565b90565b9190611efa610d61565b5080611f17611f11611f0c6000610f60565b610390565b91610390565b14159283611f26575b50505090565b8091929350611f3d611f3784610390565b91610390565b14908115611f7f575b50918215611f59575b5050388080611f20565b611f77919250611f6b611f7191611cd3565b92610390565b91610390565b143880611f4f565b611f8b91508290611ab2565b38611f46565b611faf611f9e6000610f60565b82611fa96000610f60565b91611d4a565b611fca611fc4611fbf6000610f60565b610390565b91610390565b14611fd25750565b611fee906000918291637e27328960e01b835260048301610665565b0390fd5b906120069190612000611225565b91612754565b565b6120106118e5565b61202961202361201e611cf2565b610390565b91610390565b0361203057565b61205361203b611cf2565b600091829163118cdaa760e01b8352600483016103a9565b0390fd5b6120616006611448565b61206c8260066118ad565b906120a061209a7f8be0079c531659141344cd1fd0a4f28419497f9722a3daafe3b4186f6b6457e0936117bf565b916117bf565b916120a96101b3565b806120b381610446565b0390a3565b6120c190610217565b90565b90565b906120dc6120d76120e3926120b8565b6120c4565b82546115a4565b9055565b919091826121066121006120fb6000610f60565b610390565b91610390565b1461217a5761212a8261212561211e60058590611a5b565b8690611a73565b6120c7565b91909161217561216361215d7f17307eab39ab6107e8899845ad3d59bd9653f200f220920489ca2b5937696c31936117bf565b936117bf565b9361216c6101b3565b91829182610229565b0390a3565b612196836000918291630b61174360e31b8352600483016103a9565b0390fd5b6121a390611797565b90565b6121af9061219a565b90565b6121bb906117b3565b90565b60e01b90565b905051906121d1826101d4565b565b906020828203126121ed576121ea916000016121c4565b90565b6101be565b60209181520190565b61221a6122236020936122289361221181611950565b938480936121f2565b95869101610291565b6102b6565b0190565b90926122609061225661226d969461224c6080860197600087019061039c565b602085019061039c565b6040830190610658565b60608184039101526121fb565b90565b9061228261227d83610995565b610980565b918252565b606090565b3d6000146122a95761229d3d612270565b903d6000602084013e5b565b6122b1612287565b906122a7565b9193843b6122ce6122c86000611954565b9161033f565b116122db575b5050505050565b612314600060209461231f6122f76122f28a6121a6565b6121b2565b9463150b7a029296986123086101b3565b998a98899788966121be565b86526004860161222c565b03925af180916000926123e3575b501560001461239f5750600161234957505b38808080806122d4565b61235161228c565b9061235b82611950565b61236e6123686000611954565b9161033f565b1460001461239657612392906000918291633250574960e11b8352600483016103a9565b0390fd5b50805190602001fd5b6123b86123b2630a85bd0160e11b6101c8565b916101c8565b036123c3575061233f565b6123df906000918291633250574960e11b8352600483016103a9565b0390fd5b61240591925060203d811161240c575b6123fd8183610957565b8101906121d3565b903861232d565b503d6123f3565b61241b610dce565b50612424611970565b90565b369037565b9061245161243983611201565b9260208061244786936111de565b9201910390612427565b565b600161245f910361033f565b90565b90565b61247961247461247e92612462565b610ab4565b61033f565b90565b634e487b7160e01b600052601260045260246000fd5b6124a36124a99161033f565b9161033f565b9081156124b4570490565b612481565b6124c1610dce565b506124de6124ce826128f7565b6124d86001611d12565b90611d3c565b906124e88261242c565b916124f1611318565b5060200182015b60011561255c5761250b61253791612453565b916f181899199a1a9b1b9c1cb0b131b232b360811b600a82061a8353612531600a612465565b90612497565b8061254b6125456000611954565b9161033f565b1461255657906124f8565b50505b90565b5050612559565b91909280801561268c575b61258c575b50509061258561258a92916004611cbb565b6118ad565b565b61259584611c63565b91806125b26125ac6125a76000610f60565b610390565b91610390565b141580612671575b80612657575b6126375750916125859161258a94936125dc575b509192612573565b81849061261b61261561260f7f8c5be1e5ebec7d5bd14f71427d1e84f3dd0314c0f7b2291e5b200ac8c7c3b925956117bf565b926117bf565b92610ab7565b926126246101b3565b8061262e81610446565b0390a4386125d4565b61265390600091829163a9fbf51f60e01b8352600483016103a9565b0390fd5b5061266c612666848390611ab2565b15610217565b6125c0565b508261268561267f83610390565b91610390565b14156125ba565b50816126a96126a361269e6000610f60565b610390565b91610390565b141561256e565b9160206126d29294936126cb6040820196600083019061039c565b0190610658565b565b6126e96126e382848691611ef0565b15610217565b6126f257505050565b61270d6127076127026000610f60565b610390565b91610390565b1460001461273557612731826000918291637e27328960e01b835260048301610665565b0390fd5b612750600092839263177e802f60e01b8452600484016126b0565b0390fd5b909161278192612765838290612b59565b61276d611cf2565b926127786000610f60565b909192936122b7565b565b90565b61279a61279561279f92612783565b610ab4565b61033f565b90565b90565b6127b96127b46127be926127a2565b610ab4565b61033f565b90565b90565b6127d86127d36127dd926127c1565b610ab4565b61033f565b90565b90565b6127f76127f26127fc926127e0565b610ab4565b61033f565b90565b90565b61281661281161281b926127ff565b610ab4565b61033f565b90565b90565b61283561283061283a9261281e565b610ab4565b61033f565b90565b90565b61285461284f6128599261283d565b610ab4565b61033f565b90565b90565b61287361286e6128789261285c565b610ab4565b61033f565b90565b90565b61289261288d6128979261287b565b610ab4565b61033f565b90565b90565b6128b16128ac6128b69261289a565b610ab4565b61033f565b90565b90565b6128d06128cb6128d5926128b9565b610ab4565b61033f565b90565b90565b6128ef6128ea6128f4926128d8565b610ab4565b61033f565b90565b6128ff611318565b5061290a6000611954565b90806129396129337a184f03e93ff9f4daa797ed6e38ed64bf6a1f010000000000000000612786565b9161033f565b1015612b11575b8061296161295b6d04ee2d6d415b85acef81000000006127c4565b9161033f565b1015612ad6575b8061298261297c662386f26fc10000612802565b9161033f565b1015612aa2575b806129a061299a6305f5e100612840565b9161033f565b1015612a71575b806129bc6129b661271061287e565b9161033f565b1015612a42575b806129d76129d160646128bc565b9161033f565b1015612a14575b6129f16129eb600a612465565b9161033f565b10156129fb575b90565b612a0f90612a096001611d12565b90611d3c565b6129f8565b612a2b612a3c91612a2560646128bc565b90612497565b91612a3660026128db565b90611d3c565b906129de565b612a5a612a6b91612a5461271061287e565b90612497565b91612a65600461289d565b90611d3c565b906129c3565b612a8b612a9c91612a856305f5e100612840565b90612497565b91612a96600861285f565b90611d3c565b906129a7565b612abf612ad091612ab9662386f26fc10000612802565b90612497565b91612aca6010612821565b90611d3c565b90612989565b612afa612b0b91612af46d04ee2d6d415b85acef81000000006127c4565b90612497565b91612b0560206127e3565b90611d3c565b90612968565b612b42612b5391612b3c7a184f03e93ff9f4daa797ed6e38ed64bf6a1f010000000000000000612786565b90612497565b91612b4d60406127a5565b90611d3c565b90612940565b9081612b76612b70612b6b6000610f60565b610390565b91610390565b14612bdb57612b909190612b8a6000610f60565b91611d4a565b612bab612ba5612ba06000610f60565b610390565b91610390565b03612bb257565b612bd7612bbf6000610f60565b60009182916339e3563760e11b8352600483016103a9565b0390fd5b612c00612be86000610f60565b6000918291633250574960e11b8352600483016103a9565b0390fdfea26469706673582212203ddfe44112297feeaacb80ddd2bc2c9c6967c6ca4be483ab61688dbd0fb8e1d164736f6c634300081c0033",
  "linkReferences": {},
  "deployedLinkReferences": {}
}