{
  "_format": "hh-sol-artifact-1",
  "contractName": "AgentFactory",
  "sourceName": "contracts/AgentFactory.sol",
  "abi": [
    {
      "inputs": [
        {
          "internalType": "address",
          "name": "_cadenceArch",
          "type": "address"
        }
      ],
      "stateMutability": "nonpayable",
      "type": "constructor"
    },
    {
      "anonymous": false,
      "inputs": [
        {
          "indexed": true,
          "internalType": "uint256",
          "name": "tokenId",
          "type": "uint256"
        },
        {
          "components": [
            {
              "internalType": "uint256",
              "name": "strength",
              "type": "uint256"
            },
            {
              "internalType": "uint256",
              "name": "agility",
              "type": "uint256"
            },
            {
              "internalType": "uint256",
              "name": "intelligence",
              "type": "uint256"
            },
            {
              "internalType": "uint8",
              "name": "elementalAffinity",
              "type": "uint8"
            }
          ],
          "indexed": false,
          "internalType": "struct IAgentFactory.DNA",
          "name": "dna",
          "type": "tuple"
        },
        {
          "indexed": false,
          "internalType": "string",
          "name": "metadataCID",
          "type": "string"
        }
      ],
      "name": "AgentMinted",
      "type": "event"
    },
    {
      "anonymous": false,
      "inputs": [
        {
          "indexed": true,
          "internalType": "uint256",
          "name": "tokenId",
          "type": "uint256"
        },
        {
          "indexed": false,
          "internalType": "uint256",
          "name": "xpGained",
          "type": "uint256"
        },
        {
          "indexed": false,
          "internalType": "uint256",
          "name": "totalExperience",
          "type": "uint256"
        }
      ],
      "name": "ExperienceGained",
      "type": "event"
    },
    {
      "anonymous": false,
      "inputs": [
        {
          "indexed": true,
          "internalType": "uint256",
          "name": "agentId",
          "type": "uint256"
        },
        {
          "indexed": true,
          "internalType": "uint256",
          "name": "itemId",
          "type": "uint256"
        }
      ],
      "name": "ItemEquipped",
      "type": "event"
    },
    {
      "anonymous": false,
      "inputs": [
        {
          "indexed": true,
          "internalType": "uint256",
          "name": "tokenId",
          "type": "uint256"
        },
        {
          "indexed": false,
          "internalType": "uint256",
          "name": "newLevel",
          "type": "uint256"
        },
        {
          "components": [
            {
              "internalType": "uint256",
              "name": "strength",
              "type": "uint256"
            },
            {
              "internalType": "uint256",
              "name": "agility",
              "type": "uint256"
            },
            {
              "internalType": "uint256",
              "name": "intelligence",
              "type": "uint256"
            },
            {
              "internalType": "uint8",
              "name": "elementalAffinity",
              "type": "uint8"
            }
          ],
          "indexed": false,
          "internalType": "struct IAgentFactory.DNA",
          "name": "newDna",
          "type": "tuple"
        }
      ],
      "name": "LeveledUp",
      "type": "event"
    },
    {
      "inputs": [
        {
          "internalType": "uint256",
          "name": "",
          "type": "uint256"
        }
      ],
      "name": "agents",
      "outputs": [
        {
          "internalType": "uint256",
          "name": "id",
          "type": "uint256"
        },
        {
          "internalType": "uint256",
          "name": "level",
          "type": "uint256"
        },
        {
          "internalType": "uint256",
          "name": "experience",
          "type": "uint256"
        },
        {
          "components": [
            {
              "internalType": "uint256",
              "name": "strength",
              "type": "uint256"
            },
            {
              "internalType": "uint256",
              "name": "agility",
              "type": "uint256"
            },
            {
              "internalType": "uint256",
              "name": "intelligence",
              "type": "uint256"
            },
            {
              "internalType": "uint8",
              "name": "elementalAffinity",
              "type": "uint8"
            }
          ],
          "internalType": "struct IAgentFactory.DNA",
          "name": "dna",
          "type": "tuple"
        },
        {
          "internalType": "string",
          "name": "metadataCID",
          "type": "string"
        },
        {
          "internalType": "uint256",
          "name": "equippedItem",
          "type": "uint256"
        }
      ],
      "stateMutability": "view",
      "type": "function"
    },
    {
      "inputs": [],
      "name": "arenaContract",
      "outputs": [
        {
          "internalType": "address",
          "name": "",
          "type": "address"
        }
      ],
      "stateMutability": "view",
      "type": "function"
    },
    {
      "inputs": [],
      "name": "cadenceArch",
      "outputs": [
        {
          "internalType": "address",
          "name": "",
          "type": "address"
        }
      ],
      "stateMutability": "view",
      "type": "function"
    },
    {
      "inputs": [
        {
          "internalType": "uint256",
          "name": "_agentId",
          "type": "uint256"
        },
        {
          "internalType": "uint256",
          "name": "_itemId",
          "type": "uint256"
        }
      ],
      "name": "equipItem",
      "outputs": [],
      "stateMutability": "nonpayable",
      "type": "function"
    },
    {
      "inputs": [
        {
          "internalType": "uint256",
          "name": "_tokenId",
          "type": "uint256"
        },
        {
          "internalType": "uint256",
          "name": "_xp",
          "type": "uint256"
        }
      ],
      "name": "gainExperience",
      "outputs": [],
      "stateMutability": "nonpayable",
      "type": "function"
    },
    {
      "inputs": [
        {
          "internalType": "uint256",
          "name": "_tokenId",
          "type": "uint256"
        }
      ],
      "name": "getAgent",
      "outputs": [
        {
          "components": [
            {
              "internalType": "uint256",
              "name": "id",
              "type": "uint256"
            },
            {
              "internalType": "uint256",
              "name": "level",
              "type": "uint256"
            },
            {
              "internalType": "uint256",
              "name": "experience",
              "type": "uint256"
            },
            {
              "components": [
                {
                  "internalType": "uint256",
                  "name": "strength",
                  "type": "uint256"
                },
                {
                  "internalType": "uint256",
                  "name": "agility",
                  "type": "uint256"
                },
                {
                  "internalType": "uint256",
                  "name": "intelligence",
                  "type": "uint256"
                },
                {
                  "internalType": "uint8",
                  "name": "elementalAffinity",
                  "type": "uint8"
                }
              ],
              "internalType": "struct IAgentFactory.DNA",
              "name": "dna",
              "type": "tuple"
            },
            {
              "internalType": "string",
              "name": "metadataCID",
              "type": "string"
            },
            {
              "internalType": "uint256",
              "name": "equippedItem",
              "type": "uint256"
            }
          ],
          "internalType": "struct IAgentFactory.Agent",
          "name": "",
          "type": "tuple"
        }
      ],
      "stateMutability": "view",
      "type": "function"
    },
    {
      "inputs": [
        {
          "internalType": "uint256",
          "name": "_tokenId",
          "type": "uint256"
        }
      ],
      "name": "levelUp",
      "outputs": [],
      "stateMutability": "nonpayable",
      "type": "function"
    },
    {
      "inputs": [
        {
          "internalType": "string",
          "name": "_metadataCID",
          "type": "string"
        }
      ],
      "name": "mintAgent",
      "outputs": [],
      "stateMutability": "nonpayable",
      "type": "function"
    },
    {
      "inputs": [],
      "name": "owner",
      "outputs": [
        {
          "internalType": "address",
          "name": "",
          "type": "address"
        }
      ],
      "stateMutability": "view",
      "type": "function"
    },
    {
      "inputs": [
        {
          "internalType": "address",
          "name": "_arenaAddress",
          "type": "address"
        }
      ],
      "name": "setArenaContract",
      "outputs": [],
      "stateMutability": "nonpayable",
      "type": "function"
    },
    {
      "inputs": [
        {
          "internalType": "address",
          "name": "_cadenceArch",
          "type": "address"
        }
      ],
      "name": "setCadenceArch",
      "outputs": [],
      "stateMutability": "nonpayable",
      "type": "function"
    },
    {
      "inputs": [],
      "name": "tokenIdCounter",
      "outputs": [
        {
          "internalType": "uint256",
          "name": "",
          "type": "uint256"
        }
      ],
      "stateMutability": "view",
      "type": "function"
    },
    {
      "inputs": [
        {
          "internalType": "uint256",
          "name": "",
          "type": "uint256"
        }
      ],
      "name": "xpToLevelUp",
      "outputs": [
        {
          "internalType": "uint256",
          "name": "",
          "type": "uint256"
        }
      ],
      "stateMutability": "view",
      "type": "function"
    }
  ],
  "bytecode": "0x60806040523461002f576100196100146100fa565b6102dd565b610021610034565b61218061037a823961218090f35b61003a565b60405190565b600080fd5b601f801991011690565b634e487b7160e01b600052604160045260246000fd5b906100699061003f565b810190811060018060401b0382111761008157604052565b610049565b90610099610092610034565b928361005f565b565b600080fd5b60018060a01b031690565b6100b4906100a0565b90565b6100c0816100ab565b036100c757565b600080fd5b905051906100d9826100b7565b565b906020828203126100f5576100f2916000016100cc565b90565b61009b565b6101186124fa8038038061010d81610086565b9283398101906100db565b90565b60001b90565b9061013260018060a01b039161011b565b9181191691161790565b90565b61015361014e610158926100a0565b61013c565b6100a0565b90565b6101649061013f565b90565b6101709061015b565b90565b90565b9061018b61018661019292610167565b610173565b8254610121565b9055565b90565b90565b6101b06101ab6101b592610196565b61013c565b610199565b90565b906101c56000199161011b565b9181191691161790565b6101e36101de6101e892610199565b61013c565b610199565b90565b90565b906102036101fe61020a926101cf565b6101eb565b82546101b8565b9055565b90565b61022561022061022a9261020e565b61013c565b610199565b90565b60016102399101610199565b90565b90565b61025361024e6102589261023c565b61013c565b610199565b90565b634e487b7160e01b600052601160045260246000fd5b61028061028691939293610199565b92610199565b91610292838202610199565b9281840414901517156102a157565b61025b565b90565b6102bd6102b86102c2926102a6565b61013c565b610199565b90565b906102cf906101cf565b600052602052604060002090565b610307906102ec336005610176565b6103006102f9600061019c565b60026101ee565b6000610176565b6103116001610211565b5b80610326610320601461023f565b91610199565b1015610376578061036c61035b61034b610344610371958590610271565b8490610271565b61035560646102a9565b90610271565b610367600384906102c5565b6101ee565b61022d565b610312565b5056fe60806040526004361015610013575b610b96565b61001e6000356100ed565b8063082a8c4e146100e85780630ce90ec2146100e3578063262a8c3b146100de5780632de5aaf7146100d95780633523114e146100d4578063368e0ed8146100cf578063513856c8146100ca5780638da5cb5b146100c5578063953b6a91146100c057806398bdf6f5146100bb578063d0d250bd146100b6578063d87cc700146100b15763dab74dce0361000e57610b63565b610a66565b6109ff565b6109bc565b61093c565b610907565b6108bb565b6104c2565b61048f565b610417565b610279565b610218565b610192565b60e01c90565b60405190565b600080fd5b600080fd5b600091031261010e57565b6100fe565b1c90565b60018060a01b031690565b6101329060086101379302610113565b610117565b90565b906101459154610122565b90565b610155600460009061013a565b90565b60018060a01b031690565b61016c90610158565b90565b61017890610163565b9052565b91906101909060006020850194019061016f565b565b346101c2576101a2366004610103565b6101be6101ad610148565b6101b56100f3565b9182918261017c565b0390f35b6100f9565b600080fd5b90565b6101d8816101cc565b036101df57565b600080fd5b905035906101f1826101cf565b565b9060208282031261020d5761020a916000016101e4565b90565b6100fe565b60000190565b346102465761023061022b3660046101f3565b611087565b6102386100f3565b8061024281610212565b0390f35b6100f9565b9190604083820312610274578061026861027192600086016101e4565b936020016101e4565b90565b6100fe565b346102a85761029261028c36600461024b565b906113d6565b61029a6100f3565b806102a481610212565b0390f35b6100f9565b6102b6906101cc565b9052565b60ff1690565b6102c9906102ba565b9052565b90606080610315936102e7600082015160008601906102ad565b6102f9602082015160208601906102ad565b61030b604082015160408601906102ad565b01519101906102c0565b565b5190565b60209181520190565b60005b838110610338575050906000910152565b806020918301518185015201610327565b601f801991011690565b61037261037b6020936103809361036981610317565b9384809361031b565b95869101610324565b610349565b0190565b906103fb9061010060a06103f061012084016103a8600088015160008701906102ad565b6103ba602088015160208701906102ad565b6103cc604088015160408701906102ad565b6103de606088015160608701906102cd565b608087015185820360e0870152610353565b9401519101906102ad565b90565b6104149160208201916000818403910152610384565b90565b346104475761044361043261042d3660046101f3565b6115ad565b61043a6100f3565b918291826103fe565b0390f35b6100f9565b61045581610163565b0361045c57565b600080fd5b9050359061046e8261044c565b565b9060208282031261048a5761048791600001610461565b90565b6100fe565b346104bd576104a76104a2366004610470565b6116d7565b6104af6100f3565b806104b981610212565b0390f35b6100f9565b346104f0576104da6104d5366004610470565b61171f565b6104e26100f3565b806104ec81610212565b0390f35b6100f9565b90565b61050c610507610511926101cc565b6104f5565b6101cc565b90565b9061051e906104f8565b600052602052604060002090565b60001c90565b90565b6105416105469161052c565b610532565b90565b6105539054610535565b90565b90610560906101cc565b9052565b60ff1690565b61057661057b9161052c565b610564565b90565b610588905461056a565b90565b90610595906102ba565b9052565b634e487b7160e01b600052604160045260246000fd5b906105b990610349565b810190811067ffffffffffffffff8211176105d357604052565b610599565b906105eb6105e46100f3565b92836105af565b565b6105f760806105d8565b90565b9061066361065a600361060b6105ed565b9461062461061b60008301610549565b60008801610556565b61063c61063360018301610549565b60208801610556565b61065461064b60028301610549565b60408801610556565b0161057e565b6060840161058b565b565b634e487b7160e01b600052602260045260246000fd5b906001600283049216801561069b575b602083101461069657565b610665565b91607f169161068b565b600052602060002090565b90600092918054906106cb6106c48361067b565b809461031b565b9160018116908160001461072457506001146106e7575b505050565b6106f491929394506106a5565b916000925b81841061070c57505001903880806106e2565b600181602092959395548486015201910192906106f9565b92949550505060ff19168252151560200201903880806106e2565b90610749916106b0565b90565b9061076c6107659261075c6100f3565b9384809261073f565b03836105af565b565b610779906001610514565b9061078660008301610549565b9161079360018201610549565b916107a060028301610549565b916107ad600382016105fa565b916107c660086107bf6007850161074c565b9301610549565b90565b6107d2906101cc565b9052565b9060608061081e936107f0600082015160008601906102ad565b610802602082015160208601906102ad565b610814604082015160408601906102ad565b01519101906102c0565b565b60209181520190565b6108486108516020936108569361083f81610317565b93848093610820565b95869101610324565b610349565b0190565b969593946108a46108b99661089a610100966108906108b19760208e61088961012082019a60008301906107c9565b01906107c9565b60408c01906107c9565b60608a01906107d6565b87820360e0890152610829565b9401906107c9565b565b346108f2576108ee6108d66108d13660046101f3565b61076e565b926108e59694969291926100f3565b9687968761085a565b0390f35b6100f9565b610904600560009061013a565b90565b3461093757610917366004610103565b6109336109226108f7565b61092a6100f3565b9182918261017c565b0390f35b6100f9565b3461096b5761095561094f36600461024b565b906118b2565b61095d6100f3565b8061096781610212565b0390f35b6100f9565b6109809060086109859302610113565b610532565b90565b906109939154610970565b90565b6109a36002600090610988565b90565b91906109ba906000602085019401906107c9565b565b346109ec576109cc366004610103565b6109e86109d7610996565b6109df6100f3565b918291826109a6565b0390f35b6100f9565b6109fc60008061013a565b90565b34610a2f57610a0f366004610103565b610a2b610a1a6109f1565b610a226100f3565b9182918261017c565b0390f35b6100f9565b90610a3e906104f8565b600052602052604060002090565b610a6390610a5e600391600092610a34565b610988565b90565b34610a9657610a92610a81610a7c3660046101f3565b610a4c565b610a896100f3565b918291826109a6565b0390f35b6100f9565b600080fd5b600080fd5b67ffffffffffffffff8111610ac357610abf602091610349565b0190565b610599565b90826000939282370152565b90929192610ae9610ae482610aa5565b6105d8565b93818552602085019082840111610b0557610b0392610ac8565b565b610aa0565b9080601f83011215610b2857816020610b2593359101610ad4565b90565b610a9b565b90602082820312610b5e57600082013567ffffffffffffffff8111610b5957610b569201610b0a565b90565b6101c7565b6100fe565b34610b9157610b7b610b76366004610b2d565b611def565b610b836100f3565b80610b8d81610212565b0390f35b6100f9565b600080fd5b90565b90565b610bb5610bb0610bba92610b9e565b6104f5565b6101cc565b90565b60007f4167656e7420646f6573206e6f74206578697374000000000000000000000000910152565b610bf26014602092610820565b610bfb81610bbd565b0190565b610c159060208101906000818303910152610be5565b90565b15610c1f57565b610c276100f3565b62461bcd60e51b815280610c3d60048201610bff565b0390fd5b60007f4e6f7420656e6f75676820657870657269656e63650000000000000000000000910152565b610c766015602092610820565b610c7f81610c41565b0190565b610c999060208101906000818303910152610c69565b90565b15610ca357565b610cab6100f3565b62461bcd60e51b815280610cc160048201610c83565b0390fd5b634e487b7160e01b600052601160045260246000fd5b610ce4906101cc565b6000198114610cf35760010190565b610cc5565b60001b90565b90610d0b60001991610cf8565b9181191691161790565b90565b90610d2d610d28610d34926104f8565b610d15565b8254610cfe565b9055565b610d44610d499161052c565b610117565b90565b610d569054610d38565b90565b610d6d610d68610d7292610158565b6104f5565b610158565b90565b610d7e90610d59565b90565b610d8a90610d75565b90565b610d9690610d59565b90565b610da290610d8d565b90565b60e01b90565b67ffffffffffffffff1690565b610dc181610dab565b03610dc857565b600080fd5b90505190610dda82610db8565b565b90602082820312610df657610df391600001610dcd565b90565b6100fe565b610e036100f3565b3d6000823e3d90fd5b60c01b90565b610e1b90610e0c565b90565b610e2a610e2f91610dab565b610e12565b9052565b90565b610e42610e47916101cc565b610e33565b9052565b600881610e5e610e669360209695610e1e565b018092610e36565b0190565b60200190565b5190565b60ff60f81b1690565b610e8690610e74565b90565b60f81c90565b610ea3610e9e610ea8926102ba565b6104f5565b6102ba565b90565b610eb7610ebc91610e89565b610e8f565b90565b610ed3610ece610ed8926102ba565b6104f5565b6101cc565b90565b90565b610ef2610eed610ef792610edb565b6104f5565b6101cc565b90565b634e487b7160e01b600052601260045260246000fd5b610f1c610f22916101cc565b916101cc565b908115610f2d570690565b610efa565b610f41610f47919392936101cc565b926101cc565b91610f538382026101cc565b928184041490151715610f6257565b610cc5565b610f76610f7c919392936101cc565b926101cc565b8201809211610f8757565b610cc5565b90565b610fa3610f9e610fa892610f8c565b6104f5565b6102ba565b90565b1b90565b90565b610fd190610fcb610fc5610fd6946102ba565b91610faf565b90610fab565b610faf565b90565b90565b610ff0610feb610ff592610fd9565b6104f5565b6102ba565b90565b90606061105960036110619461101e6110146000830154610535565b60008701906102ad565b61103861102e6001830154610535565b60208701906102ad565b6110526110486002830154610535565b60408701906102ad565b015461056a565b9101906102c0565b565b91602061108592949361107e60a082019660008301906107c9565b0190610ff8565b565b61109b61109660018390610514565b610b9b565b906110c56110ab60008401610549565b6110be6110b86000610ba1565b916101cc565b1415610c18565b61110b6110d460028401610549565b6111046110fe6110f96110f460036110ee60018a01610549565b90610a34565b610549565b6101cc565b916101cc565b1015610c9c565b6111296001830161112361111e82610549565b610cdb565b90610d18565b61115e602061114861114361113e6000610d4c565b610d81565b610d99565b63705fab20906111566100f3565b938492610da5565b8252818061116e60048201610212565b03915afa9081156113d15761134f91611330916000916113a3575b506111c061119960008701610549565b916111b16111a56100f3565b93849260208401610e4b565b602082018103825203826105af565b6111d26111cc82610e70565b91610e6a565b20611247611228600261122361121d61120d6111fd6111f86111f389610e7d565b610eab565b610ebf565b6112076002610ede565b90610f10565b6112176002610ede565b90610f32565b91610ede565b610f67565b611241600060038901019161123c83610549565b610f67565b90610d18565b6112ce6112af60026112aa6112a461129461128461127f61127a6112758a61126f6008610f8f565b90610fb2565b610e7d565b610eab565b610ebf565b61128e6002610ede565b90610f10565b61129e6002610ede565b90610f32565b91610ede565b610f67565b6112c860016003890101916112c383610549565b610f67565b90610d18565b61132b6113256113156113056113006112fb6112f66002976112f06010610fdc565b90610fb2565b610e7d565b610eab565b610ebf565b61130f6002610ede565b90610f10565b61131f6002610ede565b90610f32565b91610ede565b610f67565b611349600260038601019161134483610549565b610f67565b90610d18565b600361135d60018401610549565b92016113897f04af54d065bfb26a477cd9ea86e46e82a9cd924b0fb13dc08bb5001994511255926104f8565b9261139e6113956100f3565b92839283611063565b0390a2565b6113c4915060203d81116113ca575b6113bc81836105af565b810190610ddc565b38611189565b503d6113b2565b610dfb565b6113ee8260086113e860018590610514565b01610d18565b9061142261141c7ff109238e78bd4a8f9c5112c1bcf42640a1a20f49b268497b2c3c18295445f159936104f8565b916104f8565b9161142b6100f3565b8061143581610212565b0390a3565b61144460c06105d8565b90565b600090565b600090565b6114596105ed565b90602080808085611468611447565b815201611473611447565b81520161147e611447565b81520161148961144c565b81525050565b611497611451565b90565b606090565b6114a761143a565b9060208080808080876114b8611447565b8152016114c3611447565b8152016114ce611447565b8152016114d961148f565b8152016114e461149a565b8152016114ef611447565b81525050565b6114fd61149f565b90565b52565b52565b9061159f611596600861151761143a565b9461153061152760008301610549565b60008801610556565b61154861153f60018301610549565b60208801610556565b61156061155760028301610549565b60408801610556565b61157861156f600383016105fa565b60608801611500565b6115906115876007830161074c565b60808801611503565b01610549565b60a08401610556565b565b6115aa90611506565b90565b6115c46115c9916115bc6114f5565b506001610514565b6115a1565b90565b60007f4e6f7420746865206f776e657200000000000000000000000000000000000000910152565b611601600d602092610820565b61160a816115cc565b0190565b61162490602081019060008183039101526115f4565b90565b1561162e57565b6116366100f3565b62461bcd60e51b81528061164c6004820161160e565b0390fd5b61167e906116793361167361166d6116686005610d4c565b610163565b91610163565b14611627565b6116ca565b565b9061169160018060a01b0391610cf8565b9181191691161790565b6116a490610d8d565b90565b90565b906116bf6116ba6116c69261169b565b6116a7565b8254611680565b9055565b6116d59060006116aa565b565b6116e090611650565b565b6117109061170b336117056116ff6116fa6005610d4c565b610163565b91610163565b14611627565b611712565b565b61171d9060046116aa565b565b611728906116e2565b565b60007f4f6e6c79204172656e612063616e2063616c6c20746869730000000000000000910152565b61175f6018602092610820565b6117688161172a565b0190565b6117829060208101906000818303910152611752565b90565b1561178c57565b6117946100f3565b62461bcd60e51b8152806117aa6004820161176c565b0390fd5b906117dd916117d8336117d26117cc6117c76004610d4c565b610163565b91610163565b14611785565b611803565b565b9160206118019294936117fa604082019660008301906107c9565b01906107c9565b565b9061186e600261181d61181860018690610514565b610b9b565b9361184761182d60008701610549565b61184061183a6000610ba1565b916101cc565b1415610c18565b611866846118608488019161185b83610549565b610f67565b90610d18565b929301610549565b6118987fcaa434a316026b149e054a690120ac0358d069c9ffa5eda08124eb17c0f8dbdd926104f8565b926118ad6118a46100f3565b928392836117df565b0390a2565b906118bc916117ae565b565b602093926118de6008836118d688956118e697610e1e565b018092610e36565b018092610e36565b0190565b64ffffffffff60d81b1690565b611900906118ea565b90565b60d81c90565b64ffffffffff1690565b61192761192261192c92611909565b6104f5565b611909565b90565b61193b61194091611903565b611913565b90565b61195761195261195c92611909565b6104f5565b6101cc565b90565b90565b61197661197161197b9261195f565b6104f5565b6101cc565b90565b90565b61199561199061199a9261197e565b6104f5565b6101cc565b90565b90565b6119b46119af6119b99261199d565b6104f5565b6102ba565b90565b90565b6119d36119ce6119d8926119bc565b6104f5565b6102ba565b90565b90565b6119f26119ed6119f7926119db565b6104f5565b6102ba565b90565b90565b611a11611a0c611a16926119fa565b6104f5565b6101cc565b90565b611a2d611a28611a32926101cc565b6104f5565b6102ba565b90565b611a3f60806105d8565b90565b611a4c60c06105d8565b90565b90565b611a66611a61611a6b92611a4f565b6104f5565b6101cc565b90565b611a7890516101cc565b90565b5190565b611a8990516102ba565b90565b90611a9860ff91610cf8565b9181191691161790565b90565b90611aba611ab5611ac192610e8f565b611aa2565b8254611a8c565b9055565b90611b2460606003611b2a94611aea60008201611ae460008801611a6e565b90610d18565b611b0360018201611afd60208801611a6e565b90610d18565b611b1c60028201611b1660408801611a6e565b90610d18565b019201611a7f565b90611aa5565b565b90611b3691611ac5565b565b5190565b601f602091010490565b91906008611b62910291611b5c60001984610fab565b92610fab565b9181191691161790565b9190611b82611b7d611b8a936104f8565b610d15565b908354611b46565b9055565b600090565b611ba591611b9f611b8e565b91611b6c565b565b5b818110611bb3575050565b80611bc16000600193611b93565b01611ba8565b9190601f8111611bd7575b505050565b611be3611c08936106a5565b906020611bef84611b3c565b83019310611c10575b611c0190611b3c565b0190611ba7565b388080611bd2565b9150611c0181929050611bf8565b90611c2f9060001990600802610113565b191690565b81611c3e91611c1e565b906002021790565b90611c5081610317565b9067ffffffffffffffff8211611d1257611c7482611c6e855461067b565b85611bc7565b602090601f8311600114611ca957918091611c9893600092611c9d575b5050611c34565b90555b565b90915001513880611c91565b601f19831691611cb8856106a5565b9260005b818110611cfa57509160029391856001969410611ce0575b50505002019055611c9b565b611cf0910151601f841690611c1e565b9055388080611cd4565b91936020600181928787015181550195019201611cbc565b610599565b90611d2191611c46565b565b90611db460a06008611dba94611d4860008201611d4260008801611a6e565b90610d18565b611d6160018201611d5b60208801611a6e565b90610d18565b611d7a60028201611d7460408801611a6e565b90610d18565b611d9360038201611d8d60608801611a7b565b90611b2c565b611dac60078201611da660808801611b38565b90611d17565b019201611a6e565b90610d18565b565b90611dc691611d23565b565b91611dec92611ddf60a082019360008301906107d6565b6080818403910152610829565b90565b611e0b611e04611dff6002610549565b610cdb565b6002610d18565b611e156002610549565b611e4a6020611e34611e2f611e2a6000610d4c565b610d81565b610d99565b63705fab2090611e426100f3565b938492610da5565b82528180611e5a60048201610212565b03915afa90811561214557600091612117575b50428291611e796100f3565b9283926020840192611e8a936118be565b602082018103825203611e9d90826105af565b611ea681610e70565b90611eb090610e6a565b2080611ebb906118f7565b611ec49061192f565b611ecd90611943565b6032611ed890611962565b611ee191610f10565b6019611eec90611981565b611ef591610f67565b90806028611f02906119a0565b611f0b91610fb2565b611f14906118f7565b611f1d9061192f565b611f2690611943565b6032611f3190611962565b611f3a91610f10565b6019611f4590611981565b611f4e91610f67565b90806050611f5b906119bf565b611f6491610fb2565b611f6d906118f7565b611f769061192f565b611f7f90611943565b6032611f8a90611962565b611f9391610f10565b6019611f9e90611981565b611fa791610f67565b906078611fb3906119de565b611fbc91610fb2565b611fc590610e7d565b611fce90610eab565b611fd790610ebf565b6005611fe2906119fd565b611feb91610f10565b611ff490611a19565b91611ffd611a35565b93600085019061200c91610556565b602084019061201a91610556565b604083019061202891610556565b60608201906120369161058b565b90806001600084869160009361204a611a42565b95600087019061205991610556565b61206290611a52565b602086019061207091610556565b61207990610ba1565b604085019061208791610556565b606084019061209591611500565b60808301906120a391611503565b6120ac90610ba1565b60a08201906120ba91610556565b6001826120c691610514565b906120d091611dbc565b907f36f5bbb42033bc459a1227a3b2b6745af46ac4e6bc1c166ba7c4261bb4f8197c916120fc906104f8565b926121056100f3565b9182916121129183611dc8565b0390a2565b612138915060203d811161213e575b61213081836105af565b810190610ddc565b38611e6d565b503d612126565b610dfb56fea26469706673582212205157c6e9c2924c31f2babe9fdc4910da9e0586d2e9fcee9042b70c049ade7d6464736f6c634300081c0033",
  "linkReferences": {},
  "deployedLinkReferences": {}
}