{
  "_format": "hh-sol-artifact-1",
  "contractName": "Arena",
  "sourceName": "contracts/Arena.sol",
  "abi": [
    {
      "inputs": [
        {
          "internalType": "address",
          "name": "_agentFactoryAddress",
          "type": "address"
        },
        {
          "internalType": "address",
          "name": "_cadenceArch",
          "type": "address"
        }
      ],
      "stateMutability": "nonpayable",
      "type": "constructor"
    },
    {
      "anonymous": false,
      "inputs": [
        {
          "indexed": true,
          "internalType": "uint256",
          "name": "battleId",
          "type": "uint256"
        },
        {
          "indexed": true,
          "internalType": "uint256",
          "name": "attacker",
          "type": "uint256"
        },
        {
          "indexed": true,
          "internalType": "uint256",
          "name": "defender",
          "type": "uint256"
        },
        {
          "indexed": false,
          "internalType": "uint256",
          "name": "damage",
          "type": "uint256"
        }
      ],
      "name": "Attack",
      "type": "event"
    },
    {
      "anonymous": false,
      "inputs": [
        {
          "indexed": true,
          "internalType": "uint256",
          "name": "battleId",
          "type": "uint256"
        },
        {
          "indexed": true,
          "internalType": "uint256",
          "name": "winner",
          "type": "uint256"
        },
        {
          "indexed": true,
          "internalType": "uint256",
          "name": "loser",
          "type": "uint256"
        }
      ],
      "name": "BattleFinished",
      "type": "event"
    },
    {
      "anonymous": false,
      "inputs": [
        {
          "indexed": false,
          "internalType": "uint256",
          "name": "battleId",
          "type": "uint256"
        },
        {
          "indexed": false,
          "internalType": "uint256",
          "name": "agent1",
          "type": "uint256"
        },
        {
          "indexed": false,
          "internalType": "uint256",
          "name": "agent2",
          "type": "uint256"
        },
        {
          "indexed": false,
          "internalType": "enum Arena.ArenaType",
          "name": "arena",
          "type": "uint8"
        }
      ],
      "name": "BattleStarted",
      "type": "event"
    },
    {
      "inputs": [],
      "name": "agentFactory",
      "outputs": [
        {
          "internalType": "contract IAgentFactory",
          "name": "",
          "type": "address"
        }
      ],
      "stateMutability": "view",
      "type": "function"
    },
    {
      "inputs": [
        {
          "internalType": "uint256",
          "name": "",
          "type": "uint256"
        }
      ],
      "name": "agentInBattle",
      "outputs": [
        {
          "internalType": "bool",
          "name": "",
          "type": "bool"
        }
      ],
      "stateMutability": "view",
      "type": "function"
    },
    {
      "inputs": [
        {
          "internalType": "uint256",
          "name": "",
          "type": "uint256"
        },
        {
          "internalType": "uint256",
          "name": "",
          "type": "uint256"
        }
      ],
      "name": "battleAgentHealth",
      "outputs": [
        {
          "internalType": "uint256",
          "name": "",
          "type": "uint256"
        }
      ],
      "stateMutability": "view",
      "type": "function"
    },
    {
      "inputs": [
        {
          "internalType": "uint256",
          "name": "",
          "type": "uint256"
        }
      ],
      "name": "battles",
      "outputs": [
        {
          "internalType": "uint256",
          "name": "battleId",
          "type": "uint256"
        },
        {
          "internalType": "enum Arena.ArenaType",
          "name": "arena",
          "type": "uint8"
        },
        {
          "internalType": "enum Arena.BattleStatus",
          "name": "status",
          "type": "uint8"
        },
        {
          "internalType": "uint256",
          "name": "winner",
          "type": "uint256"
        }
      ],
      "stateMutability": "view",
      "type": "function"
    },
    {
      "inputs": [],
      "name": "cadenceArch",
      "outputs": [
        {
          "internalType": "address",
          "name": "",
          "type": "address"
        }
      ],
      "stateMutability": "view",
      "type": "function"
    },
    {
      "inputs": [
        {
          "internalType": "uint256",
          "name": "_battleId",
          "type": "uint256"
        }
      ],
      "name": "fight",
      "outputs": [],
      "stateMutability": "nonpayable",
      "type": "function"
    },
    {
      "inputs": [
        {
          "internalType": "uint256",
          "name": "_battleId",
          "type": "uint256"
        }
      ],
      "name": "getBattle",
      "outputs": [
        {
          "components": [
            {
              "internalType": "uint256",
              "name": "battleId",
              "type": "uint256"
            },
            {
              "internalType": "uint256[]",
              "name": "agentIds",
              "type": "uint256[]"
            },
            {
              "internalType": "uint256[]",
              "name": "agentHealths",
              "type": "uint256[]"
            },
            {
              "components": [
                {
                  "internalType": "uint8",
                  "name": "aggressiveness",
                  "type": "uint8"
                },
                {
                  "internalType": "enum Strategy",
                  "name": "strategy",
                  "type": "uint8"
                },
                {
                  "internalType": "uint8",
                  "name": "riskTolerance",
                  "type": "uint8"
                }
              ],
              "internalType": "struct BattleTactics[]",
              "name": "tactics",
              "type": "tuple[]"
            },
            {
              "internalType": "enum Arena.ArenaType",
              "name": "arena",
              "type": "uint8"
            },
            {
              "internalType": "enum Arena.BattleStatus",
              "name": "status",
              "type": "uint8"
            },
            {
              "internalType": "uint256",
              "name": "winner",
              "type": "uint256"
            }
          ],
          "internalType": "struct Arena.BattleView",
          "name": "",
          "type": "tuple"
        }
      ],
      "stateMutability": "view",
      "type": "function"
    },
    {
      "inputs": [],
      "name": "getBattleCount",
      "outputs": [
        {
          "internalType": "uint256",
          "name": "",
          "type": "uint256"
        }
      ],
      "stateMutability": "view",
      "type": "function"
    },
    {
      "inputs": [
        {
          "internalType": "uint256",
          "name": "_agent1Id",
          "type": "uint256"
        },
        {
          "components": [
            {
              "internalType": "uint8",
              "name": "aggressiveness",
              "type": "uint8"
            },
            {
              "internalType": "enum Strategy",
              "name": "strategy",
              "type": "uint8"
            },
            {
              "internalType": "uint8",
              "name": "riskTolerance",
              "type": "uint8"
            }
          ],
          "internalType": "struct BattleTactics",
          "name": "_tactics1",
          "type": "tuple"
        },
        {
          "internalType": "uint256",
          "name": "_agent2Id",
          "type": "uint256"
        },
        {
          "components": [
            {
              "internalType": "uint8",
              "name": "aggressiveness",
              "type": "uint8"
            },
            {
              "internalType": "enum Strategy",
              "name": "strategy",
              "type": "uint8"
            },
            {
              "internalType": "uint8",
              "name": "riskTolerance",
              "type": "uint8"
            }
          ],
          "internalType": "struct BattleTactics",
          "name": "_tactics2",
          "type": "tuple"
        }
      ],
      "name": "startBattle",
      "outputs": [],
      "stateMutability": "nonpayable",
      "type": "function"
    }
  ],
  "bytecode": "0x6080604052346100305761001a61001461010a565b906101ee565b610022610035565b61378561020f823961378590f35b61003b565b60405190565b600080fd5b601f801991011690565b634e487b7160e01b600052604160045260246000fd5b9061006a90610040565b810190811060018060401b0382111761008257604052565b61004a565b9061009a610093610035565b9283610060565b565b600080fd5b60018060a01b031690565b6100b5906100a1565b90565b6100c1816100ac565b036100c857565b600080fd5b905051906100da826100b8565b565b919060408382031261010557806100f961010292600086016100cd565b936020016100cd565b90565b61009c565b6101286139948038038061011d81610087565b9283398101906100dc565b9091565b90565b61014361013e610148926100a1565b61012c565b6100a1565b90565b6101549061012f565b90565b6101609061014b565b90565b60001b90565b9061017a60018060a01b0391610163565b9181191691161790565b61018d9061014b565b90565b90565b906101a86101a36101af92610184565b610190565b8254610169565b9055565b6101bc9061012f565b90565b6101c8906101b3565b90565b90565b906101e36101de6101ea926101bf565b6101cb565b8254610169565b9055565b906102056101fe61020c93610157565b6000610193565b60016101ce565b56fe60806040526004361015610013575b610af3565b61001e6000356100ad565b80632d24d097146100a8578063606d2e96146100a35780636dd0ce7a1461009e5780637df107ea14610099578063825b212414610094578063c230fe0b1461008f578063d0d250bd1461008a578063df6a37aa146100855763f470d5ec0361000e57610abe565b610a8b565b610a56565b6109af565b61082f565b610774565b61068e565b610411565b6101de565b60e01c90565b60405190565b600080fd5b600080fd5b600080fd5b90565b6100d4816100c8565b036100db57565b600080fd5b905035906100ed826100cb565b565b9190604083820312610118578061010c61011592600086016100e0565b936020016100e0565b90565b6100be565b90565b61013461012f610139926100c8565b61011d565b6100c8565b90565b9061014690610120565b600052602052604060002090565b9061015e90610120565b600052602052604060002090565b1c90565b90565b610183906008610188930261016c565b610170565b90565b906101969154610173565b90565b6101b36101b8926101ae60039360009461013c565b610154565b61018b565b90565b6101c4906100c8565b9052565b91906101dc906000602085019401906101bb565b565b3461020f5761020b6101fa6101f43660046100ef565b90610199565b6102026100b3565b918291826101c8565b0390f35b6100b9565b9060208282031261022e5761022b916000016100e0565b90565b6100be565b634e487b7160e01b600052603260045260246000fd5b5490565b600052602060002090565b61026181610249565b82101561027c5761027360059161024d565b91020190600090565b610233565b60001c90565b61029361029891610281565b610170565b90565b6102a59054610287565b90565b60ff1690565b6102ba6102bf91610281565b6102a8565b90565b6102cc90546102ae565b90565b60081c90565b60ff1690565b6102e76102ec916102cf565b6102d5565b90565b6102f990546102db565b90565b60029061030882610249565b81101561034f5761031891610258565b50906103266000830161029b565b91610333600382016102c2565b9161034c6004610345600385016102ef565b930161029b565b90565b600080fd5b634e487b7160e01b600052602160045260246000fd5b6003111561037457565b610354565b906103838261036a565b565b61038e90610379565b90565b61039a90610385565b9052565b600211156103a857565b610354565b906103b78261039e565b565b6103c2906103ad565b90565b6103ce906103b9565b9052565b61040861040f946103fe6060949897956103f4608086019a60008701906101bb565b6020850190610391565b60408301906103c5565b01906101bb565b565b346104455761044161042c610427366004610214565b6102fc565b906104389492946100b3565b948594856103d2565b0390f35b6100b9565b610453906100c8565b9052565b5190565b60209181520190565b60200190565b906104778160209361044a565b0190565b60200190565b9061049e61049861049184610457565b809361045b565b92610464565b9060005b8181106104af5750505090565b9091926104c86104c2600192865161046a565b9461047b565b91019190916104a2565b5190565b60209181520190565b60200190565b60ff1690565b6104f4906104e5565b9052565b6004111561050257565b610354565b90610511826104f8565b565b61051c90610507565b90565b61052890610513565b9052565b9060408061056293610546600082015160008601906104eb565b6105586020820151602086019061051f565b01519101906104eb565b565b906105718160609361052c565b0190565b60200190565b9061059861059261058b846104d2565b80936104d6565b926104df565b9060005b8181106105a95750505090565b9091926105c26105bc6001928651610564565b94610575565b910191909161059c565b6105d590610385565b9052565b6105e2906103b9565b9052565b906106729060c08061064361063161061f60e0860161060d60008a0151600089019061044a565b60208901518782036020890152610481565b60408801518682036040880152610481565b6060870151858203606087015261057b565b94610656608082015160808601906105cc565b61066860a082015160a08601906105d9565b015191019061044a565b90565b61068b91602082019160008184039101526105e6565b90565b346106be576106ba6106a96106a4366004610214565b610f7c565b6106b16100b3565b91829182610675565b0390f35b6100b9565b60009103126106ce57565b6100be565b60018060a01b031690565b6106ee9060086106f3930261016c565b6106d3565b90565b9061070191546106de565b90565b61070f6000806106f6565b90565b60018060a01b031690565b61073161072c61073692610712565b61011d565b610712565b90565b6107429061071d565b90565b61074e90610739565b90565b61075a90610745565b9052565b919061077290600060208501940190610751565b565b346107a4576107843660046106c3565b6107a061078f610704565b6107976100b3565b9182918261075e565b0390f35b6100b9565b906107b390610120565b600052602052604060002090565b60ff1690565b6107d79060086107dc930261016c565b6107c1565b90565b906107ea91546107c7565b90565b610804906107ff6004916000926107a9565b6107df565b90565b151590565b61081590610807565b9052565b919061082d9060006020850194019061080c565b565b3461085f5761085b61084a610845366004610214565b6107ed565b6108526100b3565b91829182610819565b0390f35b6100b9565b600080fd5b601f801991011690565b634e487b7160e01b600052604160045260246000fd5b9061089390610869565b810190811067ffffffffffffffff8211176108ad57604052565b610873565b906108c56108be6100b3565b9283610889565b565b600080fd5b6108d5816104e5565b036108dc57565b600080fd5b905035906108ee826108cc565b565b600411156108fa57565b600080fd5b9050359061090c826108f0565b565b919060608382031261095c576109559061092860606108b2565b9361093682600083016108e1565b600086015261094882602083016108ff565b60208601526040016108e1565b6040830152565b610864565b610100818303126109a45761097982600083016100e0565b926109a161098a846020850161090e565b9361099881608086016100e0565b9360a00161090e565b90565b6100be565b60000190565b346109e1576109cb6109c2366004610961565b92919091611df4565b6109d36100b3565b806109dd816109a9565b0390f35b6100b9565b60018060a01b031690565b610a01906008610a06930261016c565b6109e6565b90565b90610a1491546109f1565b90565b610a246001600090610a09565b90565b610a3090610712565b90565b610a3c90610a27565b9052565b9190610a5490600060208501940190610a33565b565b34610a8657610a663660046106c3565b610a82610a71610a17565b610a796100b3565b91829182610a40565b0390f35b6100b9565b34610ab957610aa3610a9e366004610214565b612636565b610aab6100b3565b80610ab5816109a9565b0390f35b6100b9565b34610aee57610ace3660046106c3565b610aea610ad9612f45565b610ae16100b3565b918291826101c8565b0390f35b6100b9565b600080fd5b610b0260e06108b2565b90565b600090565b606090565b606090565b600090565b600090565b610b26610af8565b90602080808080808088610b38610b05565b815201610b43610b0a565b815201610b4e610b0a565b815201610b59610b0f565b815201610b64610b14565b815201610b6f610b19565b815201610b7a610b05565b81525050565b610b88610b1e565b90565b60209181520190565b60007f426174746c6520646f6573206e6f742065786973740000000000000000000000910152565b610bc96015602092610b8b565b610bd281610b94565b0190565b610bec9060208101906000818303910152610bbc565b90565b15610bf657565b610bfe6100b3565b62461bcd60e51b815280610c1460048201610bd6565b0390fd5b90565b5490565b67ffffffffffffffff8111610c375760208091020190565b610873565b90610c4e610c4983610c1f565b6108b2565b918252565b369037565b90610c7d610c6583610c3c565b92602080610c738693610c1f565b9201910390610c53565b565b90565b610c96610c91610c9b92610c7f565b61011d565b6100c8565b90565b6001610caa91016100c8565b90565b600052602060002090565b610cc181610c1b565b821015610cdc57610cd3600191610cad565b91020190600090565b610233565b90610ceb82610457565b811015610cfc576020809102010190565b610233565b90610d0b906100c8565b9052565b610d1960e06108b2565b90565b610d269054610287565b90565b60010190565b90610d4c610d46610d3f84610c1b565b809361045b565b92610cad565b9060005b818110610d5d5750505090565b909192610d7d610d77600192610d7287610d1c565b61046a565b94610d29565b9101919091610d50565b90610d9191610d2f565b90565b90610db4610dad92610da46100b3565b93848092610d87565b0383610889565b565b610dbf90610d94565b90565b52565b5490565b67ffffffffffffffff8111610de15760208091020190565b610873565b90610df8610df383610dc9565b6108b2565b918252565b600052602060002090565b60ff1690565b610e1a610e1f91610281565b610e08565b90565b610e2c9054610e0e565b90565b90610e39906104e5565b9052565b60ff1690565b610e4f610e54916102cf565b610e3d565b90565b610e619054610e43565b90565b90610e6e90610507565b9052565b60101c90565b610e84610e8991610e72565b610e08565b90565b610e969054610e78565b90565b610ea360606108b2565b90565b90610ef4610eeb6000610eb7610e99565b94610ece610ec6838301610e22565b838801610e2f565b610ee5610edc838301610e57565b60208801610e64565b01610e8c565b60408401610e2f565b565b610eff90610ea6565b90565b90610f0c82610dc5565b610f1581610de6565b92610f236020850191610dfd565b6000915b838310610f345750505050565b600160208192610f4385610ef6565b815201920192019190610f27565b610f5a90610f02565b90565b52565b90610f6a90610379565b9052565b90610f78906103ad565b9052565b90610f85610b80565b50610fab82610fa5610f9f610f9a6002610249565b6100c8565b916100c8565b10610bef565b610fc0610fba60028490610258565b50610c18565b91610fd5610fd060018501610c1b565b610c58565b90610fe06000610c82565b5b80610fff610ff9610ff460018901610c1b565b6100c8565b916100c8565b101561105c576110579061105261104061103b61101e6003879061013c565b61103561102f60018c018790610cb8565b9061018b565b90610154565b61029b565b61104d8691849092610ce1565b610d01565b610c9e565b610fe1565b50509190918160000161106e9061029b565b9180600101918160020182600301611085906102c2565b9183600301611093906102ef565b936004016110a09061029b565b946110a9610d0f565b9660008801906110b891610d01565b6110c190610db6565b60208701906110cf91610dc2565b60408601906110dd91610dc2565b6110e690610f51565b60608501906110f491610f5d565b608084019061110291610f60565b60a083019061111091610f6e565b60c082019061111e91610d01565b90565b61112d61113291610281565b6106d3565b90565b61113f9054611121565b90565b600080fd5b60e01b90565b9050519061115a826100cb565b565b90505190611169826108cc565b565b91906080838203126111cb576111c49061118560806108b2565b93611193826000830161114d565b60008601526111a5826020830161114d565b60208601526111b7826040830161114d565b604086015260600161115c565b6060830152565b610864565b600080fd5b600080fd5b67ffffffffffffffff81116111f8576111f4602091610869565b0190565b610873565b60005b838110611211575050906000910152565b806020918301518185015201611200565b90929192611237611232826111da565b6108b2565b9381855260208501908284011161125357611251926111fd565b565b6111d5565b9080601f830112156112765781602061127393519101611222565b90565b6111d0565b9190916101208184031261131a5761129360c06108b2565b926112a1816000840161114d565b60008501526112b3816020840161114d565b60208501526112c5816040840161114d565b60408501526112d7816060840161116b565b606085015260e08201519167ffffffffffffffff8311611315576113008261130e948301611258565b60808601526101000161114d565b60a0830152565b6108c7565b610864565b9060208282031261135057600082015167ffffffffffffffff811161134b57611348920161127b565b90565b6100c3565b6100be565b61135d6100b3565b3d6000823e3d90fd5b61137090516100c8565b90565b60007f4167656e7420646f6573206e6f74206578697374000000000000000000000000910152565b6113a86014602092610b8b565b6113b181611373565b0190565b6113cb906020810190600081830391015261139b565b90565b156113d557565b6113dd6100b3565b62461bcd60e51b8152806113f3600482016113b5565b0390fd5b61140190516104e5565b90565b90565b61141b61141661142092611404565b61011d565b6104e5565b90565b60007f496e76616c696420616767726573736976656e65737300000000000000000000910152565b6114586016602092610b8b565b61146181611423565b0190565b61147b906020810190600081830391015261144b565b90565b1561148557565b61148d6100b3565b62461bcd60e51b8152806114a360048201611465565b0390fd5b60007f496e76616c6964207269736b20746f6c6572616e636500000000000000000000910152565b6114dc6016602092610b8b565b6114e5816114a7565b0190565b6114ff90602081019060008183039101526114cf565b90565b1561150957565b6115116100b3565b62461bcd60e51b815280611527600482016114e9565b0390fd5b61153761153c91610281565b6109e6565b90565b611549905461152b565b90565b6115559061071d565b90565b6115619061154c565b90565b61156d90610739565b90565b67ffffffffffffffff1690565b61158681611570565b0361158d57565b600080fd5b9050519061159f8261157d565b565b906020828203126115bb576115b891600001611592565b90565b6100be565b90565b6115d76115d26115dc926115c0565b61011d565b611570565b90565b634e487b7160e01b600052601260045260246000fd5b61160161160791611570565b91611570565b908115611612570690565b6115df565b61162b61162661163092611570565b61011d565b610379565b90565b90565b61164a61164561164f92611633565b61011d565b6100c8565b90565b90565b61166961166461166e92611652565b61011d565b6100c8565b90565b600090565b600090565b611683610e99565b906020808084611691611671565b81520161169c611676565b8152016116a7611671565b81525050565b6116b561167b565b90565b60005b8281106116c757505050565b6020906116d26116ad565b81840152016116bb565b906117016116e983610de6565b926020806116f78693610dc9565b92019103906116b8565b565b9061170d826104d2565b81101561171e576020809102010190565b610233565b90565b61173060c06108b2565b90565b600052602060002090565b5490565b61174b8161173e565b8210156117665761175d600591611733565b91020190600090565b610233565b634e487b7160e01b600052600060045260246000fd5b60001b90565b9061179460001991611781565b9181191691161790565b90565b906117b66117b16117bd92610120565b61179e565b8254611787565b9055565b5190565b634e487b7160e01b600052601160045260246000fd5b6117ea6117f0919392936100c8565b926100c8565b916117fc8382026100c8565b92818404149015171561180b57565b6117c5565b600190818003010490565b1b90565b9190600861183b9102916118356000198461181b565b9261181b565b9181191691161790565b919061185b61185661186393610120565b61179e565b90835461181f565b9055565b600090565b61187e91611878611867565b91611845565b565b5b81811061188c575050565b8061189a600060019361186c565b01611881565b90918281106118af575b505050565b6118cd6118c76118c16118d895611810565b92611810565b92610cad565b918201910190611880565b3880806118aa565b9068010000000000000000811161190957816118fe61190793610c1b565b908281556118a0565b565b610873565b61191782610457565b9167ffffffffffffffff831161197b5761194561193f60019261193a86866118e0565b610464565b92610cad565b92049160005b8381106119585750505050565b600190602061196e61196986611366565b61179e565b940193818401550161194b565b610873565b9061198a9161190e565b565b5190565b600190818003010490565b600080910155565b906000036119b6576119b49061199b565b565b61176b565b5b8181106119c7575050565b806119d560006001936119a3565b016119bc565b90918281106119ea575b505050565b611a08611a026119fc611a1395611990565b92611990565b92610dfd565b9182019101906119bb565b3880806119e5565b90680100000000000000008111611a445781611a39611a4293610dc5565b908281556119db565b565b610873565b5190565b90611a5960ff91611781565b9181191691161790565b611a77611a72611a7c926104e5565b61011d565b6104e5565b90565b90565b90611a97611a92611a9e92611a63565b611a7f565b8254611a4d565b9055565b611aac9051610507565b90565b60081b90565b90611ac261ff0091611aaf565b9181191691161790565b611ad590610507565b90565b90565b90611af0611aeb611af792611acc565b611ad8565b8254611ab5565b9055565b60101b90565b90611b0f62ff000091611afb565b9181191691161790565b90611b2e611b29611b3592611a63565b611a7f565b8254611b01565b9055565b90611b7c60406000611b8294611b5c828201611b568488016113f7565b90611a82565b611b74828201611b6e60208801611aa2565b90611adb565b0192016113f7565b90611b19565b565b90611b8e91611b39565b565b611bb5611baf611b9f846104d2565b93611baa8585611a1b565b6104df565b91610dfd565b6000915b838310611bc65750505050565b6001602082611bde611bd88495611a49565b86611b84565b01920192019190611bb9565b90611bf491611b90565b565b611c009051610379565b90565b611c0c90610379565b90565b90565b90611c27611c22611c2e92611c03565b611c0f565b8254611a4d565b9055565b611c3c90516103ad565b90565b611c48906103ad565b90565b90565b90611c63611c5e611c6a92611c3f565b611c4b565b8254611ab5565b9055565b90611cff60a06004611d0594611c9360008201611c8d60008801611366565b906117a1565b611cac60018201611ca6602088016117c1565b90611980565b611cc560028201611cbf6040880161198c565b90611bea565b611cde60038201611cd860608801611bf6565b90611c12565b611cf760038201611cf160808801611c32565b90611c4e565b019201611366565b906117a1565b565b9190611d1857611d1691611c6e565b565b61176b565b9081549168010000000000000000831015611d4d5782611d45916001611d4b95018155611742565b90611d07565b565b610873565b90565b611d69611d64611d6e92611d52565b61011d565b6100c8565b90565b90565b611d88611d83611d8d92611d71565b61011d565b6100c8565b90565b611d9f611da5919392936100c8565b926100c8565b8201809211611db057565b6117c5565b611deb611df294611de1606094989795611dd7608086019a60008701906101bb565b60208501906101bb565b60408301906101bb565b0190610391565b565b929190611e376000611e0d611e0882611135565b610745565b632de5aaf790611e2c8892611e206100b3565b95869485938493611147565b8352600483016101c8565b03915afa90811561231d576000916122fa575b50611e8b6000611e61611e5c82611135565b610745565b632de5aaf790611e808792611e746100b3565b95869485938493611147565b8352600483016101c8565b03915afa9081156122f5576000916122d2575b5090611eac60008201611366565b611ebf611eb96000610c82565b916100c8565b1415806122a6575b611ed0906113ce565b611edc600084016113f7565b611eef611ee96064611407565b916104e5565b11158061227a575b611f009061147e565b611f0c604084016113f7565b611f1f611f196064611407565b916104e5565b11158061224e575b611f3090611502565b611f3a6002610249565b92611f706020611f5a611f55611f50600161153f565b611558565b611564565b63705fab2090611f686100b3565b938492611147565b82528180611f80600482016109a9565b03915afa9081156122495760009161221b575b506003611f9f906115c3565b611fa8916115f5565b611fb190611617565b956002611fbd90611636565b611fc690610c58565b9088826000611fd490610c82565b611fdd91610ce1565b90611fe791610d01565b86826001611ff490611655565b611ffd91610ce1565b9061200791610d01565b600261201290611636565b61201b906116dc565b92839060009061202a82610c82565b6120349084611703565b5261203e90610c82565b61204791611703565b5150829060019061205782611655565b6120619084611703565b5261206b90611655565b61207491611703565b5150600261208190611723565b9185919088600091600093612094611726565b9560008701906120a391610d01565b60208601906120b191610dc2565b60408501906120bf91610f5d565b60608401906120cd91610f60565b60808301906120db91610f6e565b6120e490610c82565b60a08201906120f291610d01565b6120fb91611d1d565b8060200161210890611366565b601461211390611d55565b61211c916117db565b906060015160000161212d90611366565b600561213890611d74565b612141916117db565b61214a91611d90565b908060200161215890611366565b601461216390611d55565b61216c916117db565b906060015160000161217d90611366565b600561218890611d74565b612191916117db565b61219a91611d90565b906003836121a79161013c565b866121b191610154565b906121bb916117a1565b6003826121c79161013c565b836121d191610154565b906121db916117a1565b929091927fee1f4a056590adca336ca88ea149bd251d1d2c5ea0530bd96f4724b968713c94936122096100b3565b9384936122169385611db5565b0390a1565b61223c915060203d8111612242575b6122348183610889565b8101906115a1565b38611f93565b503d61222a565b611355565b50611f3061225e604087016113f7565b61227161226b6064611407565b916104e5565b11159050611f27565b50611f0061228a600087016113f7565b61229d6122976064611407565b916104e5565b11159050611ef7565b50611ed06122b660008401611366565b6122c96122c36000610c82565b916100c8565b14159050611ec7565b6122ef91503d806000833e6122e78183610889565b81019061131f565b38611e9e565b611355565b61231791503d806000833e61230f8183610889565b81019061131f565b38611e4a565b611355565b60007f426174746c6520697320616c72656164792066696e6973686564000000000000910152565b612357601a602092610b8b565b61236081612322565b0190565b61237a906020810190600081830391015261234a565b90565b1561238457565b61238c6100b3565b62461bcd60e51b8152806123a260048201612364565b0390fd5b6123b26123b791610281565b6107c1565b90565b6123c490546123a6565b90565b60007f4167656e7420616c726561647920696e20626174746c65000000000000000000910152565b6123fc6017602092610b8b565b612405816123c7565b0190565b61241f90602081019060008183039101526123ef565b90565b1561242957565b6124316100b3565b62461bcd60e51b81528061244760048201612409565b0390fd5b61245490610807565b90565b90565b9061246f61246a6124769261244b565b612457565b8254611a4d565b9055565b60c01b90565b6124899061247a565b90565b61249861249d91611570565b612480565b9052565b90565b6124b06124b5916100c8565b6124a1565b9052565b6008816124cc6124d4936020969561248c565b0180926124a4565b0190565b60200190565b5190565b6124f66124f16124fb926115c0565b61011d565b6100c8565b90565b61250781610dc5565b82101561252257612519600191610dfd565b91020190600090565b610233565b61253160c06108b2565b90565b52565b52565b90565b906125479061253a565b9052565b61255a612560919392936100c8565b926100c8565b820391821161256b57565b6117c5565b90565b61257f6125849161253a565b612570565b9052565b61259481602093612573565b0190565b6125ac6125a76125b192611404565b61011d565b6100c8565b90565b6125c06125c6916100c8565b916100c8565b9081156125d1570490565b6115df565b60009103126125e157565b6100be565b90565b6125fd6125f8612602926125e6565b61011d565b6100c8565b90565b61260e906125e9565b9052565b91602061263492949361262d604082019660008301906101bb565b0190612605565b565b9061265c8261265661265061264b6002610249565b6100c8565b916100c8565b10610bef565b61267161266b60028490610258565b50610c18565b9061269a612681600384016102ef565b61269461268e60006103ad565b916103ad565b1461237d565b6126b26126ac60018401600090610cb8565b9061018b565b926126cb6126c560018501600190610cb8565b9061018b565b906126e96126e36126de600488906107a9565b6123ba565b15610807565b80612f1d575b6126f890612422565b61270e6001612709600488906107a9565b61245a565b612724600161271f600485906107a9565b61245a565b612764600061273a61273582611135565b610745565b632de5aaf790612759899261274d6100b3565b95869485938493611147565b8352600483016101c8565b03915afa908115612f1857600091612ef5575b50906127b9600061278f61278a82611135565b610745565b632de5aaf7906127ae87926127a26100b3565b95869485938493611147565b8352600483016101c8565b03915afa908115612ef057600091612ecd575b50926127ec6127e76127e06003859061013c565b8990610154565b61029b565b9661280b6128066127ff6003869061013c565b8490610154565b61029b565b96612814611867565b9761281d611867565b98612853602061283d612838612833600161153f565b611558565b611564565b63705fab209061284b6100b3565b938492611147565b82528180612863600482016109a9565b03915afa908115612ec857600091612e9a575b506128a287916128936128876100b3565b938492602084016124b9565b60208201810382520382610889565b6128b46128ae826124de565b916124d8565b20906128c06000610c82565b915b826128d66128d060036124e2565b916100c8565b1015612e875761297860006129738c61296a856129618f8c612953612958929661294a61294161290a600286018d906124fe565b5061293c61292a600361292260028a016001906124fe565b5098016102c2565b999b612934612527565b9e8f01612534565b610ef6565b60208c01612537565b60408a01612534565b610ef6565b60608701612537565b60808501610f60565b60a0830161253d565b613175565b938461298c612986836100c8565b916100c8565b1015600014612e7757506129a06000610c82565b5b938890878991926129f96129e76129e16129db7fcf2d586a11b0df2dc974a66369ad4e68566a0635fd2448e810592eac3d3bedae94610120565b94610120565b94610120565b946129f06100b3565b918291826101c8565b0390a483612a10612a0a6000610c82565b916100c8565b14612e6057612af06000612aeb8b612ae28e612ad9612ad08c612a47612a56612acb9b612a3b6100b3565b92839160208301612588565b60208201810382520382610889565b612a68612a62826124de565b916124d8565b20998a9496612ac2612ab9612a82600286016001906124fe565b50612ab4612aa26003612a9a60028a016000906124fe565b5098016102c2565b999b612aac612527565b9e8f01612534565b610ef6565b60208c01612537565b60408a01612534565b610ef6565b60608701612537565b60808501610f60565b60a0830161253d565b613175565b9c8d80612b05612aff846100c8565b916100c8565b1015600014612e52575050612b1a6000610c82565b5b9c889088889192612b73612b61612b5b612b557fcf2d586a11b0df2dc974a66369ad4e68566a0635fd2448e810592eac3d3bedae94610120565b94610120565b94610120565b94612b6a6100b3565b918291826101c8565b0390a48c612b8a612b846000610c82565b916100c8565b14612bdb57612bad612bbc612bd592612ba16100b3565b92839160208301612588565b60208201810382520382610889565b612bce612bc8826124de565b916124d8565b2092610c9e565b916128c2565b505050919395975091939597849784975b89612c00612bfa6000610c82565b916100c8565b14612d39575b50505050612c529291612c2e612c4092612c24600160038301611c4e565b60048991016117a1565b612c3b60009160046107a9565b61245a565b612c4d60009160046107a9565b61245a565b612c64612c5f6000611135565b610745565b63953b6a9184603292803b15612d3457612c9260008094612c9d612c866100b3565b97889687958694611147565b845260048401612612565b03925af18015612d2f57612d02575b5091612cea612ce4612cde7fc76e6de66e7f50844440b686c8189ef9b89939dfe8f4560382213011ed5d31c795610120565b92610120565b92610120565b92612cf36100b3565b80612cfd816109a9565b0390a4565b612d229060003d8111612d28575b612d1a8183610889565b8101906125d6565b38612cac565b503d612d10565b611355565b611142565b612c5296959950612e279394985091612e17612e06612e1c93612e01612df0612da788612da1612d9160006060612d88612d78612e219f602001611366565b612d826014611d55565b906117db565b94015101611366565b612d9b6005611d74565b906117db565b90611d90565b92612dea612dda60006060612dd1612dc160208701611366565b612dcb6014611d55565b906117db565b94015101611366565b612de46005611d74565b906117db565b90611d90565b94612dfb6064612598565b906117db565b6125b4565b95612e116064612598565b906117db565b6125b4565b6100c8565b916100c8565b1015600014612e4357612c4085612c2e83965b92829495612c06565b612c408195612c2e8196612e3a565b612e5b9161254b565b612b1b565b505050918094969850989092949698978597612bec565b612e8290859061254b565b6129a1565b5099989a92949690509690929496612bec565b612ebb915060203d8111612ec1575b612eb38183610889565b8101906115a1565b38612876565b503d612ea9565b611355565b612eea91503d806000833e612ee28183610889565b81019061131f565b386127cc565b611355565b612f1291503d806000833e612f0a8183610889565b81019061131f565b38612777565b611355565b506126f8612f3e612f38612f33600486906107a9565b6123ba565b15610807565b90506126ef565b612f4d611867565b50612f586002610249565b90565b90565b612f72612f6d612f7792612f5b565b61011d565b6100c8565b90565b90565b612f91612f8c612f9692612f7a565b61011d565b6100c8565b90565b90565b612fb0612fab612fb592612f99565b61011d565b6104e5565b90565b612fc4612fca916104e5565b916104e5565b908115612fd5570490565b6115df565b612fee612fe9612ff3926104e5565b61011d565b6100c8565b90565b613000905161253a565b90565b6bffffffffffffffffffffffff191690565b61301e90613003565b90565b60601c90565b61303361303891613021565b61071d565b90565b61304f61304a61305492610712565b61011d565b6100c8565b90565b613063613069916100c8565b916100c8565b908115613074570690565b6115df565b90565b61309061308b61309592613079565b61011d565b6104e5565b90565b6130b7906130b16130ab6130bc946104e5565b9161253a565b9061181b565b61253a565b90565b6130d36130ce6130d892611633565b61011d565b6104e5565b90565b6130e76130ed916104e5565b916104e5565b90039060ff82116130fa57565b6117c5565b90565b61311661311161311b926130ff565b61011d565b6100c8565b90565b61313261312d61313792611652565b61011d565b6104e5565b90565b61314e613149613153926115c0565b61011d565b6104e5565b90565b90565b61316d61316861317292613156565b61011d565b6100c8565b90565b61317d611867565b506131c16131a76131976000606081860151015101611366565b6131a16002611636565b906117db565b6131bb604060606000860151015101611366565b90611d90565b61332361331361320a6131de600060606040880151015101611366565b6132046131f460406060818a0151015101611366565b6131fe6002611636565b906117db565b90611d90565b9261330d6132fd866132f761321f6064612598565b6132296064612598565b9061323960208086015101611aa2565b61324c6132466001610507565b91610507565b146000146136f45761326890613262601e612f7d565b90611d90565b5b8361327a6020606083015101611aa2565b61328d6132876003610507565b91610507565b146136b0575b6132dc600060206132d36132f1956132cd6132c86132b886866132ec9a0151016113f7565b6132c26004612f9c565b90612fb8565b612fda565b90611d90565b970151016113f7565b6132e66004612f9c565b90612fb8565b612fda565b9061254b565b936117db565b6133076064612598565b906125b4565b936117db565b61331d6064612598565b906125b4565b81613336613330836100c8565b916100c8565b11156136a0576133459161254b565b9061337d61336d61336861336361335e60a08601612ff6565b613015565b613027565b61303b565b6133776064612598565b90613057565b613391602060606040850151015101611366565b6133a461339e60326125e9565b916100c8565b11600014613681576133c86133c26133bc60326125e9565b5b6100c8565b916100c8565b10613672576134176134076134026133fd6133f86133e860a08701612ff6565b6133f260a061307c565b90613098565b613015565b613027565b61303b565b6134116064612598565b90613057565b61344261343d61342d60406020860151016113f7565b61343760026130bf565b90612fb8565b612fda565b9061348161347c61346c6064613467613461604060208a0151016113f7565b91611407565b6130db565b6134766004612f9c565b90612fb8565b612fda565b9161349561348f83926100c8565b916100c8565b10600014613614575050906134b76134c7916134b1600f612f5e565b906117db565b6134c1600a613102565b906125b4565b905b6134d560808201611bf6565b6134e86134e26001610379565b91610379565b14806135e7575b600014613522575061350e61351e916135086073613159565b906117db565b6135186064612598565b906125b4565b5b90565b61352e60808201611bf6565b61354161353b6002610379565b91610379565b149081613580575b50613554575b61351f565b61356b61357b916135656073613159565b906117db565b6135756064612598565b906125b4565b61354f565b905061359560608060008401510151016113f7565b6135a86135a2600361313a565b916104e5565b149081156135b8575b5038613549565b6135cd915060606000819201510151016113f7565b6135e06135da6004612f9c565b916104e5565b14386135b1565b506135fb60608060008401510151016113f7565b61360e613608600161311e565b916104e5565b146134ef565b61363361362e61363992936136296064612598565b61254b565b6100c8565b916100c8565b11613644575b6134c9565b9061365c61366c916136566005611d74565b906117db565b613666600a613102565b906125b4565b9061363f565b505061367e6000610c82565b90565b6133c86133c261369b602060606040870151015101611366565b6133bd565b5050506136ad6001611655565b90565b916132dc600060206132d36132f1956132cd6132c86132b886866136e16132ec9b6136db601e612f7d565b90611d90565b9c9a505050505050955050505050613293565b61370360208086015101611aa2565b6137166137106002610507565b91610507565b14613721575b613269565b61373861374991613732600f612f5e565b90611d90565b91613743600f612f5e565b90611d90565b9061371c56fea264697066735822122048d34de0a5e9e9ba235854d1eac17aff47904714c5f0b6ceab546d9c6ffe7ae064736f6c634300081c0033",
  "linkReferences": {},
  "deployedLinkReferences": {}
}